{
  "transactions": [
    {
      "hash": "0x3bdfca7184e4e04602ae616041d088bc9c3e3771fe4cb550b47076b4de5478ea",
      "transactionType": "CALL",
      "contractName": null,
      "contractAddress": "0x1b57f4058863597071548a8b19Fb2bd2B2EC3b6e",
      "function": "setApprove(address[],address[],uint256,bool)",
      "arguments": [
        "[0x2260FAC5E5542a773Aa44fBCfeDf7C193bc2C599, 0xE41d2489571d322189246DaFA5ebDe1F4699F498, 0x89d24A6b4CcB1B6fAA2625fE562bDD9a23260359, 0x1f9840a85d5aF5bf1D1762F925BDADdC4201F984, 0xc00e94Cb662C3520282E6f5717214004A7f26888, 0x0000000000085d4780B73119b644AE5ecd22b376, 0x514910771AF9Ca656af840dff83E8264EcF986CA, 0x9f8F72aA9304c8B593d555F12eF6589cC3A579A2, 0x6B3595068778DD592e39A122f4f5a5cF09C90fE2]",
        "[0xccF4429DB6322D5C611ee964527D42E5d685DD6a, 0xB3319f5D18Bc0D84dD1b4825Dcde5d5f7266d407, 0xF5DCe57282A584D2746FaF1593d3121Fcac444dC, 0x35A18000230DA775CAc24873d00Ff85BccdeD550, 0x70e36f6BF80a52b3B46b3aF8e106CC0ed743E8e4, 0x12392F67bdf24faE0AF363c24aC620a2f67DAd86, 0xFAce851a4921ce59e912d19329929CE6da6EB0c7, 0x95b4eF2869eBD94BEb4eEE400a99824BF5DC325b, 0x4B0181102A0112A2ef11AbEE5563bb4a3176c9d7]",
        "115792089237316195423570985008687907853269984665640564039457584007913129639935",
        "true"
      ],
      "transaction": {
        "type": "0x02",
        "from": "0x1662de05d43c3a6512e0a6fde48f074cd2384889",
        "to": "0x1b57f4058863597071548a8b19fb2bd2b2ec3b6e",
        "gas": "0x73480",
        "value": "0x0",
        "data": "0xfbf78349000000000000000000000000000000000000000000000000000000000000008000000000000000000000000000000000000000000000000000000000000001c0ffffffffffffffffffffffffffffffffffffffffffffffffffffffffffffffff000000000000000000000000000000000000000000000000000000000000000100000000000000000000000000000000000000000000000000000000000000090000000000000000000000002260fac5e5542a773aa44fbcfedf7c193bc2c599000000000000000000000000e41d2489571d322189246dafa5ebde1f4699f49800000000000000000000000089d24a6b4ccb1b6faa2625fe562bdd9a232603590000000000000000000000001f9840a85d5af5bf1d1762f925bdaddc4201f984000000000000000000000000c00e94cb662c3520282e6f5717214004a7f268880000000000000000000000000000000000085d4780b73119b644ae5ecd22b376000000000000000000000000514910771af9ca656af840dff83e8264ecf986ca0000000000000000000000009f8f72aa9304c8b593d555f12ef6589cc3a579a20000000000000000000000006b3595068778dd592e39a122f4f5a5cf09c90fe20000000000000000000000000000000000000000000000000000000000000009000000000000000000000000ccf4429db6322d5c611ee964527d42e5d685dd6a000000000000000000000000b3319f5d18bc0d84dd1b4825dcde5d5f7266d407000000000000000000000000f5dce57282a584d2746faf1593d3121fcac444dc00000000000000000000000035a18000230da775cac24873d00ff85bccded55000000000000000000000000070e36f6bf80a52b3b46b3af8e106cc0ed743e8e400000000000000000000000012392f67bdf24fae0af363c24ac620a2f67dad86000000000000000000000000face851a4921ce59e912d19329929ce6da6eb0c700000000000000000000000095b4ef2869ebd94beb4eee400a99824bf5dc325b0000000000000000000000004b0181102a0112a2ef11abee5563bb4a3176c9d7",
        "nonce": "0x4",
        "accessList": []
      },
      "additionalContracts": [],
      "isFixedGasLimit": false
    }
  ],
  "receipts": [
    {
      "transactionHash": "0x3bdfca7184e4e04602ae616041d088bc9c3e3771fe4cb550b47076b4de5478ea",
      "transactionIndex": "0xc",
      "blockHash": "0xfe00d278a28a15e5caccc34004c4b718f652d07f94aed727add2616e5f1a20b1",
      "blockNumber": "0x12beddb",
      "from": "0x1662De05D43C3a6512E0a6fDE48f074cd2384889",
      "to": "0x1b57f4058863597071548a8b19Fb2bd2B2EC3b6e",
      "cumulativeGasUsed": "0x155d0f",
      "gasUsed": "0x4ed33",
      "contractAddress": null,
      "logs": [
        {
          "address": "0x2260FAC5E5542a773Aa44fBCfeDf7C193bc2C599",
          "topics": [
            "0x8c5be1e5ebec7d5bd14f71427d1e84f3dd0314c0f7b2291e5b200ac8c7c3b925",
            "0x0000000000000000000000001b57f4058863597071548a8b19fb2bd2b2ec3b6e",
            "0x000000000000000000000000ccf4429db6322d5c611ee964527d42e5d685dd6a"
          ],
          "data": "0xffffffffffffffffffffffffffffffffffffffffffffffffffffffffffffffff",
          "blockHash": "0xfe00d278a28a15e5caccc34004c4b718f652d07f94aed727add2616e5f1a20b1",
          "blockNumber": "0x12beddb",
          "transactionHash": "0x3bdfca7184e4e04602ae616041d088bc9c3e3771fe4cb550b47076b4de5478ea",
          "transactionIndex": "0xc",
          "logIndex": "0x23",
          "removed": false
        },
        {
          "address": "0xE41d2489571d322189246DaFA5ebDe1F4699F498",
          "topics": [
            "0x8c5be1e5ebec7d5bd14f71427d1e84f3dd0314c0f7b2291e5b200ac8c7c3b925",
            "0x0000000000000000000000001b57f4058863597071548a8b19fb2bd2b2ec3b6e",
            "0x000000000000000000000000b3319f5d18bc0d84dd1b4825dcde5d5f7266d407"
          ],
          "data": "0xffffffffffffffffffffffffffffffffffffffffffffffffffffffffffffffff",
          "blockHash": "0xfe00d278a28a15e5caccc34004c4b718f652d07f94aed727add2616e5f1a20b1",
          "blockNumber": "0x12beddb",
          "transactionHash": "0x3bdfca7184e4e04602ae616041d088bc9c3e3771fe4cb550b47076b4de5478ea",
          "transactionIndex": "0xc",
          "logIndex": "0x24",
          "removed": false
        },
        {
          "address": "0x89d24A6b4CcB1B6fAA2625fE562bDD9a23260359",
          "topics": [
            "0x8c5be1e5ebec7d5bd14f71427d1e84f3dd0314c0f7b2291e5b200ac8c7c3b925",
            "0x0000000000000000000000001b57f4058863597071548a8b19fb2bd2b2ec3b6e",
            "0x000000000000000000000000f5dce57282a584d2746faf1593d3121fcac444dc"
          ],
          "data": "0xffffffffffffffffffffffffffffffffffffffffffffffffffffffffffffffff",
          "blockHash": "0xfe00d278a28a15e5caccc34004c4b718f652d07f94aed727add2616e5f1a20b1",
          "blockNumber": "0x12beddb",
          "transactionHash": "0x3bdfca7184e4e04602ae616041d088bc9c3e3771fe4cb550b47076b4de5478ea",
          "transactionIndex": "0xc",
          "logIndex": "0x25",
          "removed": false
        },
        {
          "address": "0x1f9840a85d5aF5bf1D1762F925BDADdC4201F984",
          "topics": [
            "0x8c5be1e5ebec7d5bd14f71427d1e84f3dd0314c0f7b2291e5b200ac8c7c3b925",
            "0x0000000000000000000000001b57f4058863597071548a8b19fb2bd2b2ec3b6e",
            "0x00000000000000000000000035a18000230da775cac24873d00ff85bccded550"
          ],
          "data": "0x0000000000000000000000000000000000000000ffffffffffffffffffffffff",
          "blockHash": "0xfe00d278a28a15e5caccc34004c4b718f652d07f94aed727add2616e5f1a20b1",
          "blockNumber": "0x12beddb",
          "transactionHash": "0x3bdfca7184e4e04602ae616041d088bc9c3e3771fe4cb550b47076b4de5478ea",
          "transactionIndex": "0xc",
          "logIndex": "0x26",
          "removed": false
        },
        {
          "address": "0xc00e94Cb662C3520282E6f5717214004A7f26888",
          "topics": [
            "0x8c5be1e5ebec7d5bd14f71427d1e84f3dd0314c0f7b2291e5b200ac8c7c3b925",
            "0x0000000000000000000000001b57f4058863597071548a8b19fb2bd2b2ec3b6e",
            "0x00000000000000000000000070e36f6bf80a52b3b46b3af8e106cc0ed743e8e4"
          ],
          "data": "0x0000000000000000000000000000000000000000ffffffffffffffffffffffff",
          "blockHash": "0xfe00d278a28a15e5caccc34004c4b718f652d07f94aed727add2616e5f1a20b1",
          "blockNumber": "0x12beddb",
          "transactionHash": "0x3bdfca7184e4e04602ae616041d088bc9c3e3771fe4cb550b47076b4de5478ea",
          "transactionIndex": "0xc",
          "logIndex": "0x27",
          "removed": false
        },
        {
          "address": "0x0000000000085d4780B73119b644AE5ecd22b376",
          "topics": [
            "0x8c5be1e5ebec7d5bd14f71427d1e84f3dd0314c0f7b2291e5b200ac8c7c3b925",
            "0x0000000000000000000000001b57f4058863597071548a8b19fb2bd2b2ec3b6e",
            "0x00000000000000000000000012392f67bdf24fae0af363c24ac620a2f67dad86"
          ],
          "data": "0xffffffffffffffffffffffffffffffffffffffffffffffffffffffffffffffff",
          "blockHash": "0xfe00d278a28a15e5caccc34004c4b718f652d07f94aed727add2616e5f1a20b1",
          "blockNumber": "0x12beddb",
          "transactionHash": "0x3bdfca7184e4e04602ae616041d088bc9c3e3771fe4cb550b47076b4de5478ea",
          "transactionIndex": "0xc",
          "logIndex": "0x28",
          "removed": false
        },
        {
          "address": "0x514910771AF9Ca656af840dff83E8264EcF986CA",
          "topics": [
            "0x8c5be1e5ebec7d5bd14f71427d1e84f3dd0314c0f7b2291e5b200ac8c7c3b925",
            "0x0000000000000000000000001b57f4058863597071548a8b19fb2bd2b2ec3b6e",
            "0x000000000000000000000000face851a4921ce59e912d19329929ce6da6eb0c7"
          ],
          "data": "0xffffffffffffffffffffffffffffffffffffffffffffffffffffffffffffffff",
          "blockHash": "0xfe00d278a28a15e5caccc34004c4b718f652d07f94aed727add2616e5f1a20b1",
          "blockNumber": "0x12beddb",
          "transactionHash": "0x3bdfca7184e4e04602ae616041d088bc9c3e3771fe4cb550b47076b4de5478ea",
          "transactionIndex": "0xc",
          "logIndex": "0x29",
          "removed": false
        },
        {
          "address": "0x9f8F72aA9304c8B593d555F12eF6589cC3A579A2",
          "topics": [
            "0x8c5be1e5ebec7d5bd14f71427d1e84f3dd0314c0f7b2291e5b200ac8c7c3b925",
            "0x0000000000000000000000001b57f4058863597071548a8b19fb2bd2b2ec3b6e",
            "0x00000000000000000000000095b4ef2869ebd94beb4eee400a99824bf5dc325b"
          ],
          "data": "0xffffffffffffffffffffffffffffffffffffffffffffffffffffffffffffffff",
          "blockHash": "0xfe00d278a28a15e5caccc34004c4b718f652d07f94aed727add2616e5f1a20b1",
          "blockNumber": "0x12beddb",
          "transactionHash": "0x3bdfca7184e4e04602ae616041d088bc9c3e3771fe4cb550b47076b4de5478ea",
          "transactionIndex": "0xc",
          "logIndex": "0x2a",
          "removed": false
        },
        {
          "address": "0x6B3595068778DD592e39A122f4f5a5cF09C90fE2",
          "topics": [
            "0x8c5be1e5ebec7d5bd14f71427d1e84f3dd0314c0f7b2291e5b200ac8c7c3b925",
            "0x0000000000000000000000001b57f4058863597071548a8b19fb2bd2b2ec3b6e",
            "0x0000000000000000000000004b0181102a0112a2ef11abee5563bb4a3176c9d7"
          ],
          "data": "0xffffffffffffffffffffffffffffffffffffffffffffffffffffffffffffffff",
          "blockHash": "0xfe00d278a28a15e5caccc34004c4b718f652d07f94aed727add2616e5f1a20b1",
          "blockNumber": "0x12beddb",
          "transactionHash": "0x3bdfca7184e4e04602ae616041d088bc9c3e3771fe4cb550b47076b4de5478ea",
          "transactionIndex": "0xc",
          "logIndex": "0x2b",
          "removed": false
        }
      ],
      "status": "0x1",
      "logsBloom": "0x0000008040000000000000000800100000000000001000001000000000400100000000400000000000000000000008100000000008000000000000000024000000000000000000024000108010000000020000100a000000000000000001004008000000000000000000000000002000020000000000401000000000000000000100010000000000000000004020000000008000000000000000000010000000030000000000000000000000002010000200001100000000030000000000000400000000000000000001000081000404040000010800000000000000110000000010000000000000000000000080000000200000000000000000000000020000",
      "type": "0x2",
      "effectiveGasPrice": "0x33ade415c"
    }
  ],
  "libraries": [],
  "pending": [],
  "returns": {},
  "timestamp": 1713126474,
  "chain": 1,
  "commit": "3cca3f8"
}