{
  "transactions": [
    {
      "hash": "0x9b966260555ce08a359a2f27bd4dfb0fbbaafb9d9d1077fc06dc1dc0be4e017b",
      "transactionType": "CALL",
      "contractName": null,
      "contractAddress": "0x0000000000000000000000000000000000000000",
      "function": "setApprove(address[],address[],uint256,bool)",
      "arguments": [
        "[0x0D8775F648430679A709E98d2b0Cb6250d2887EF]",
        "[0xBBBBBbbBBb9cC5e90e3b3Af64bdAF62C37EEFFCb]",
        "115792089237316195423570985008687907853269984665640564039457584007913129639935",
        "false"
      ],
      "transaction": {
        "type": "0x02",
        "from": "0x1662de05d43c3a6512e0a6fde48f074cd2384889",
        "to": "0x0000000000000000000000000000000000000000",
        "gas": "0x7c18",
        "value": "0x0",
        "data": "0xfbf78349000000000000000000000000000000000000000000000000000000000000008000000000000000000000000000000000000000000000000000000000000000c0ffffffffffffffffffffffffffffffffffffffffffffffffffffffffffffffff000000000000000000000000000000000000000000000000000000000000000000000000000000000000000000000000000000000000000000000000000000010000000000000000000000000d8775f648430679a709e98d2b0cb6250d2887ef0000000000000000000000000000000000000000000000000000000000000001000000000000000000000000bbbbbbbbbb9cc5e90e3b3af64bdaf62c37eeffcb",
        "nonce": "0x1",
        "accessList": []
      },
      "additionalContracts": [],
      "isFixedGasLimit": false
    }
  ],
  "receipts": [
    {
      "transactionHash": "0x9b966260555ce08a359a2f27bd4dfb0fbbaafb9d9d1077fc06dc1dc0be4e017b",
      "transactionIndex": "0x9",
      "blockHash": "0x8cc263eabca400aafc704de9d861f0821d221779af3323c67911d43b2fed2c4f",
      "blockNumber": "0x12becba",
      "from": "0x1662De05D43C3a6512E0a6fDE48f074cd2384889",
      "to": "0x0000000000000000000000000000000000000000",
      "cumulativeGasUsed": "0x1084ff",
      "gasUsed": "0x59d8",
      "contractAddress": null,
      "logs": [],
      "status": "0x1",
      "logsBloom": "0x00000000000000000000000000000000000000000000000000000000000000000000000000000000000000000000000000000000000000000000000000000000000000000000000000000000000000000000000000000000000000000000000000000000000000000000000000000000000000000000000000000000000000000000000000000000000000000000000000000000000000000000000000000000000000000000000000000000000000000000000000000000000000000000000000000000000000000000000000000000000000000000000000000000000000000000000000000000000000000000000000000000000000000000000000000000",
      "type": "0x2",
      "effectiveGasPrice": "0x3403a130e"
    }
  ],
  "libraries": [],
  "pending": [],
  "returns": {},
  "timestamp": 1713122990,
  "chain": 1,
  "commit": "3cca3f8"
}