{
  "transactions": [
    {
      "hash": "0x70795996ba90f4f5c78ed15b8206ea8e404c820bbdf05d502384f5a9a12a9bbe",
      "transactionType": "CALL",
      "contractName": null,
      "contractAddress": "0x1b57f4058863597071548a8b19Fb2bd2B2EC3b6e",
      "function": "setvalidatorShare(uint256)",
      "arguments": [
        "100"
      ],
      "transaction": {
        "type": "0x02",
        "from": "0x1662de05d43c3a6512e0a6fde48f074cd2384889",
        "to": "0x1b57f4058863597071548a8b19fb2bd2b2ec3b6e",
        "gas": "0xa34d",
        "value": "0x0",
        "data": "0x7672a6260000000000000000000000000000000000000000000000000000000000000064",
        "nonce": "0x8",
        "accessList": []
      },
      "additionalContracts": [],
      "isFixedGasLimit": false
    },
    {
      "hash": "0x3a87e89d4c88dbfc00c7da382356691220977457543ebee6e8311d4d2301aab9",
      "transactionType": "CALL",
      "contractName": null,
      "contractAddress": "0x1b57f4058863597071548a8b19Fb2bd2B2EC3b6e",
      "function": "liquidate(address[],address[],address[],uint256[],address[],bytes[])",
      "arguments": [
        "[0xA0b86991c6218b36c1d19D4a2e9Eb0cE3606eB48]",
        "[0x39AA39c021dfbaE8faC545936693aC917d5E7563]",
        "[0x2565f8e0b33f2d3Bb1C0E2DD5fBb972dF48654c8]",
        "[389561679]",
        "[0x70e36f6BF80a52b3B46b3aF8e106CC0ed743E8e4]",
        "[0xc00e94cb662c3520282e6f5717214004a7f26888000bb8c02aaa39b223fe8d0a0e5c4f27ead9083c756cc2000bb8a0b86991c6218b36c1d19d4a2e9eb0ce3606eb48]"
      ],
      "transaction": {
        "type": "0x02",
        "from": "0x7014852d523d70dd671cbcb1841fbd6710906725",
        "to": "0x1b57f4058863597071548a8b19fb2bd2b2ec3b6e",
        "gas": "0x157907",
        "value": "0x0",
        "data": "0x9ade727900000000000000000000000000000000000000000000000000000000000000c000000000000000000000000000000000000000000000000000000000000001000000000000000000000000000000000000000000000000000000000000000140000000000000000000000000000000000000000000000000000000000000018000000000000000000000000000000000000000000000000000000000000001c000000000000000000000000000000000000000000000000000000000000002000000000000000000000000000000000000000000000000000000000000000001000000000000000000000000a0b86991c6218b36c1d19d4a2e9eb0ce3606eb48000000000000000000000000000000000000000000000000000000000000000100000000000000000000000039aa39c021dfbae8fac545936693ac917d5e756300000000000000000000000000000000000000000000000000000000000000010000000000000000000000002565f8e0b33f2d3bb1c0e2dd5fbb972df48654c800000000000000000000000000000000000000000000000000000000000000010000000000000000000000000000000000000000000000000000000017383d4f000000000000000000000000000000000000000000000000000000000000000100000000000000000000000070e36f6bf80a52b3b46b3af8e106cc0ed743e8e4000000000000000000000000000000000000000000000000000000000000000100000000000000000000000000000000000000000000000000000000000000200000000000000000000000000000000000000000000000000000000000000042c00e94cb662c3520282e6f5717214004a7f26888000bb8c02aaa39b223fe8d0a0e5c4f27ead9083c756cc2000bb8a0b86991c6218b36c1d19d4a2e9eb0ce3606eb48000000000000000000000000000000000000000000000000000000000000",
        "nonce": "0x6",
        "accessList": []
      },
      "additionalContracts": [],
      "isFixedGasLimit": false
    }
  ],
  "receipts": [
    {
      "transactionHash": "0x70795996ba90f4f5c78ed15b8206ea8e404c820bbdf05d502384f5a9a12a9bbe",
      "transactionIndex": "0x1e",
      "blockHash": "0xcd94c39960e697e76bfd4127bbb01e5247673bb355ad836fe1525eb3c2d4c26d",
      "blockNumber": "0x12beff5",
      "from": "0x1662De05D43C3a6512E0a6fDE48f074cd2384889",
      "to": "0x1b57f4058863597071548a8b19Fb2bd2B2EC3b6e",
      "cumulativeGasUsed": "0x526c5d",
      "gasUsed": "0x6fa9",
      "contractAddress": null,
      "logs": [],
      "status": "0x1",
      "logsBloom": "0x00000000000000000000000000000000000000000000000000000000000000000000000000000000000000000000000000000000000000000000000000000000000000000000000000000000000000000000000000000000000000000000000000000000000000000000000000000000000000000000000000000000000000000000000000000000000000000000000000000000000000000000000000000000000000000000000000000000000000000000000000000000000000000000000000000000000000000000000000000000000000000000000000000000000000000000000000000000000000000000000000000000000000000000000000000000",
      "type": "0x2",
      "effectiveGasPrice": "0x498f0d40e"
    },
    {
      "transactionHash": "0x3a87e89d4c88dbfc00c7da382356691220977457543ebee6e8311d4d2301aab9",
      "transactionIndex": "0x0",
      "blockHash": "0xe04e564d52688cbe6c918684fbaa4454e0f62846b2a5ea28cf3c63d0ca03b006",
      "blockNumber": "0x12beff6",
      "from": "0x7014852D523d70Dd671cbcb1841Fbd6710906725",
      "to": "0x1b57f4058863597071548a8b19Fb2bd2B2EC3b6e",
      "cumulativeGasUsed": "0xf81cd",
      "gasUsed": "0xf81cd",
      "contractAddress": null,
      "logs": [
        {
          "address": "0xBBBBBbbBBb9cC5e90e3b3Af64bdAF62C37EEFFCb",
          "topics": [
            "0xc76f1b4fe4396ac07a9fa55a415d4ca430e72651d37d3401f3bed7cb13fc4f12",
            "0x0000000000000000000000001b57f4058863597071548a8b19fb2bd2b2ec3b6e",
            "0x000000000000000000000000a0b86991c6218b36c1d19d4a2e9eb0ce3606eb48"
          ],
          "data": "0x0000000000000000000000000000000000000000000000000000000017383d4f",
          "blockHash": "0xe04e564d52688cbe6c918684fbaa4454e0f62846b2a5ea28cf3c63d0ca03b006",
          "blockNumber": "0x12beff6",
          "transactionHash": "0x3a87e89d4c88dbfc00c7da382356691220977457543ebee6e8311d4d2301aab9",
          "transactionIndex": "0x0",
          "logIndex": "0x0",
          "removed": false
        },
        {
          "address": "0xA0b86991c6218b36c1d19D4a2e9Eb0cE3606eB48",
          "topics": [
            "0xddf252ad1be2c89b69c2b068fc378daa952ba7f163c4a11628f55a4df523b3ef",
            "0x000000000000000000000000bbbbbbbbbb9cc5e90e3b3af64bdaf62c37eeffcb",
            "0x0000000000000000000000001b57f4058863597071548a8b19fb2bd2b2ec3b6e"
          ],
          "data": "0x0000000000000000000000000000000000000000000000000000000017383d4f",
          "blockHash": "0xe04e564d52688cbe6c918684fbaa4454e0f62846b2a5ea28cf3c63d0ca03b006",
          "blockNumber": "0x12beff6",
          "transactionHash": "0x3a87e89d4c88dbfc00c7da382356691220977457543ebee6e8311d4d2301aab9",
          "transactionIndex": "0x0",
          "logIndex": "0x1",
          "removed": false
        },
        {
          "address": "0x39AA39c021dfbaE8faC545936693aC917d5E7563",
          "topics": [
            "0x875352fb3fadeb8c0be7cbbe8ff761b308fa7033470cd0287f02f3436fd76cb9"
          ],
          "data": "0x0000000000000000000000000000000000000000000000000000000013dac6f2000000000000000000000000000000000000000000000000134049353e906e5a00000000000000000000000000000000000000000000000000003605abcc87de",
          "blockHash": "0xe04e564d52688cbe6c918684fbaa4454e0f62846b2a5ea28cf3c63d0ca03b006",
          "blockNumber": "0x12beff6",
          "transactionHash": "0x3a87e89d4c88dbfc00c7da382356691220977457543ebee6e8311d4d2301aab9",
          "transactionIndex": "0x0",
          "logIndex": "0x2",
          "removed": false
        },
        {
          "address": "0x70e36f6BF80a52b3B46b3aF8e106CC0ed743E8e4",
          "topics": [
            "0x4dec04e750ca11537cabcd8a9eab06494de08da3735bc8871cd41250e190bc04"
          ],
          "data": "0x0000000000000000000000000000000000000000000008d316aa041657a27a700000000000000000000000000000000000000000000000000030dfb75a8cf871000000000000000000000000000000000000000000000000111a5cf4f3881de80000000000000000000000000000000000000000000000877f4c0c777724b84e",
          "blockHash": "0xe04e564d52688cbe6c918684fbaa4454e0f62846b2a5ea28cf3c63d0ca03b006",
          "blockNumber": "0x12beff6",
          "transactionHash": "0x3a87e89d4c88dbfc00c7da382356691220977457543ebee6e8311d4d2301aab9",
          "transactionIndex": "0x0",
          "logIndex": "0x3",
          "removed": false
        },
        {
          "address": "0x3d9819210A31b4961b30EF54bE2aeD79B9c9Cd3B",
          "topics": [
            "0x1fc3ecc087d8d2d15e23d0032af5a47059c3892d003d8e139fdcb6bb327c99a6",
            "0x00000000000000000000000039aa39c021dfbae8fac545936693ac917d5e7563",
            "0x0000000000000000000000002565f8e0b33f2d3bb1c0e2dd5fbb972df48654c8"
          ],
          "data": "0x000000000000000000000000000000000000000000000000008c3d00fa9b1efa0000000000000000000000000027467eb3ac5833cbabeee26610c84fc72dce1d",
          "blockHash": "0xe04e564d52688cbe6c918684fbaa4454e0f62846b2a5ea28cf3c63d0ca03b006",
          "blockNumber": "0x12beff6",
          "transactionHash": "0x3a87e89d4c88dbfc00c7da382356691220977457543ebee6e8311d4d2301aab9",
          "transactionIndex": "0x0",
          "logIndex": "0x4",
          "removed": false
        },
        {
          "address": "0xA0b86991c6218b36c1d19D4a2e9Eb0cE3606eB48",
          "topics": [
            "0xddf252ad1be2c89b69c2b068fc378daa952ba7f163c4a11628f55a4df523b3ef",
            "0x0000000000000000000000001b57f4058863597071548a8b19fb2bd2b2ec3b6e",
            "0x00000000000000000000000039aa39c021dfbae8fac545936693ac917d5e7563"
          ],
          "data": "0x0000000000000000000000000000000000000000000000000000000017383d4f",
          "blockHash": "0xe04e564d52688cbe6c918684fbaa4454e0f62846b2a5ea28cf3c63d0ca03b006",
          "blockNumber": "0x12beff6",
          "transactionHash": "0x3a87e89d4c88dbfc00c7da382356691220977457543ebee6e8311d4d2301aab9",
          "transactionIndex": "0x0",
          "logIndex": "0x5",
          "removed": false
        },
        {
          "address": "0x39AA39c021dfbaE8faC545936693aC917d5E7563",
          "topics": [
            "0x1a2a22cb034d26d1854bdc6666a5b91fe25efbbb5dcad3b0355478d6f5c362a1"
          ],
          "data": "0x0000000000000000000000001b57f4058863597071548a8b19fb2bd2b2ec3b6e0000000000000000000000002565f8e0b33f2d3bb1c0e2dd5fbb972df48654c80000000000000000000000000000000000000000000000000000000017383d4f000000000000000000000000000000000000000000000000000000001738d2000000000000000000000000000000000000000000000000000000360594944a8f",
          "blockHash": "0xe04e564d52688cbe6c918684fbaa4454e0f62846b2a5ea28cf3c63d0ca03b006",
          "blockNumber": "0x12beff6",
          "transactionHash": "0x3a87e89d4c88dbfc00c7da382356691220977457543ebee6e8311d4d2301aab9",
          "transactionIndex": "0x0",
          "logIndex": "0x6",
          "removed": false
        },
        {
          "address": "0x3d9819210A31b4961b30EF54bE2aeD79B9c9Cd3B",
          "topics": [
            "0x2caecd17d02f56fa897705dcc740da2d237c373f70686f4e0d9bd3bf0400ea7a",
            "0x00000000000000000000000070e36f6bf80a52b3b46b3af8e106cc0ed743e8e4",
            "0x0000000000000000000000002565f8e0b33f2d3bb1c0e2dd5fbb972df48654c8"
          ],
          "data": "0x000000000000000000000000000000000000000000000000000000000000000000000000000000000000000000005444b23d713290a21983ae71f1b63df8d054",
          "blockHash": "0xe04e564d52688cbe6c918684fbaa4454e0f62846b2a5ea28cf3c63d0ca03b006",
          "blockNumber": "0x12beff6",
          "transactionHash": "0x3a87e89d4c88dbfc00c7da382356691220977457543ebee6e8311d4d2301aab9",
          "transactionIndex": "0x0",
          "logIndex": "0x7",
          "removed": false
        },
        {
          "address": "0x3d9819210A31b4961b30EF54bE2aeD79B9c9Cd3B",
          "topics": [
            "0x2caecd17d02f56fa897705dcc740da2d237c373f70686f4e0d9bd3bf0400ea7a",
            "0x00000000000000000000000070e36f6bf80a52b3b46b3af8e106cc0ed743e8e4",
            "0x0000000000000000000000001b57f4058863597071548a8b19fb2bd2b2ec3b6e"
          ],
          "data": "0x000000000000000000000000000000000000000000000000000000000000000000000000000000000000000000005444b23d713290a21983ae71f1b63df8d054",
          "blockHash": "0xe04e564d52688cbe6c918684fbaa4454e0f62846b2a5ea28cf3c63d0ca03b006",
          "blockNumber": "0x12beff6",
          "transactionHash": "0x3a87e89d4c88dbfc00c7da382356691220977457543ebee6e8311d4d2301aab9",
          "transactionIndex": "0x0",
          "logIndex": "0x8",
          "removed": false
        },
        {
          "address": "0x70e36f6BF80a52b3B46b3aF8e106CC0ed743E8e4",
          "topics": [
            "0xddf252ad1be2c89b69c2b068fc378daa952ba7f163c4a11628f55a4df523b3ef",
            "0x0000000000000000000000002565f8e0b33f2d3bb1c0e2dd5fbb972df48654c8",
            "0x0000000000000000000000001b57f4058863597071548a8b19fb2bd2b2ec3b6e"
          ],
          "data": "0x0000000000000000000000000000000000000000000000000000000879caece1",
          "blockHash": "0xe04e564d52688cbe6c918684fbaa4454e0f62846b2a5ea28cf3c63d0ca03b006",
          "blockNumber": "0x12beff6",
          "transactionHash": "0x3a87e89d4c88dbfc00c7da382356691220977457543ebee6e8311d4d2301aab9",
          "transactionIndex": "0x0",
          "logIndex": "0x9",
          "removed": false
        },
        {
          "address": "0x70e36f6BF80a52b3B46b3aF8e106CC0ed743E8e4",
          "topics": [
            "0xddf252ad1be2c89b69c2b068fc378daa952ba7f163c4a11628f55a4df523b3ef",
            "0x0000000000000000000000002565f8e0b33f2d3bb1c0e2dd5fbb972df48654c8",
            "0x00000000000000000000000070e36f6bf80a52b3b46b3af8e106cc0ed743e8e4"
          ],
          "data": "0x000000000000000000000000000000000000000000000000000000003e811ad7",
          "blockHash": "0xe04e564d52688cbe6c918684fbaa4454e0f62846b2a5ea28cf3c63d0ca03b006",
          "blockNumber": "0x12beff6",
          "transactionHash": "0x3a87e89d4c88dbfc00c7da382356691220977457543ebee6e8311d4d2301aab9",
          "transactionIndex": "0x0",
          "logIndex": "0xa",
          "removed": false
        },
        {
          "address": "0x70e36f6BF80a52b3B46b3aF8e106CC0ed743E8e4",
          "topics": [
            "0xa91e67c5ea634cd43a12c5a482724b03de01e85ca68702a53d0c2f45cb7c1dc5"
          ],
          "data": "0x00000000000000000000000070e36f6bf80a52b3b46b3af8e106cc0ed743e8e400000000000000000000000000000000000000000000000002fdb61ae7ea967e0000000000000000000000000000000000000000000000ba35ac5f6417a231de",
          "blockHash": "0xe04e564d52688cbe6c918684fbaa4454e0f62846b2a5ea28cf3c63d0ca03b006",
          "blockNumber": "0x12beff6",
          "transactionHash": "0x3a87e89d4c88dbfc00c7da382356691220977457543ebee6e8311d4d2301aab9",
          "transactionIndex": "0x0",
          "logIndex": "0xb",
          "removed": false
        },
        {
          "address": "0x39AA39c021dfbaE8faC545936693aC917d5E7563",
          "topics": [
            "0x298637f684da70674f26509b10f07ec2fbc77a335ab1e7d6215a4b2484d8bb52"
          ],
          "data": "0x0000000000000000000000001b57f4058863597071548a8b19fb2bd2b2ec3b6e0000000000000000000000002565f8e0b33f2d3bb1c0e2dd5fbb972df48654c80000000000000000000000000000000000000000000000000000000017383d4f00000000000000000000000070e36f6bf80a52b3b46b3af8e106cc0ed743e8e400000000000000000000000000000000000000000000000000000008b84c07b8",
          "blockHash": "0xe04e564d52688cbe6c918684fbaa4454e0f62846b2a5ea28cf3c63d0ca03b006",
          "blockNumber": "0x12beff6",
          "transactionHash": "0x3a87e89d4c88dbfc00c7da382356691220977457543ebee6e8311d4d2301aab9",
          "transactionIndex": "0x0",
          "logIndex": "0xc",
          "removed": false
        },
        {
          "address": "0x3d9819210A31b4961b30EF54bE2aeD79B9c9Cd3B",
          "topics": [
            "0x2caecd17d02f56fa897705dcc740da2d237c373f70686f4e0d9bd3bf0400ea7a",
            "0x00000000000000000000000070e36f6bf80a52b3b46b3af8e106cc0ed743e8e4",
            "0x0000000000000000000000001b57f4058863597071548a8b19fb2bd2b2ec3b6e"
          ],
          "data": "0x000000000000000000000000000000000000000000000000000000000000000000000000000000000000000000005444b23d713290a21983ae71f1b63df8d054",
          "blockHash": "0xe04e564d52688cbe6c918684fbaa4454e0f62846b2a5ea28cf3c63d0ca03b006",
          "blockNumber": "0x12beff6",
          "transactionHash": "0x3a87e89d4c88dbfc00c7da382356691220977457543ebee6e8311d4d2301aab9",
          "transactionIndex": "0x0",
          "logIndex": "0xd",
          "removed": false
        },
        {
          "address": "0xc00e94Cb662C3520282E6f5717214004A7f26888",
          "topics": [
            "0xddf252ad1be2c89b69c2b068fc378daa952ba7f163c4a11628f55a4df523b3ef",
            "0x00000000000000000000000070e36f6bf80a52b3b46b3af8e106cc0ed743e8e4",
            "0x0000000000000000000000001b57f4058863597071548a8b19fb2bd2b2ec3b6e"
          ],
          "data": "0x00000000000000000000000000000000000000000000000067d51f5d0006c28a",
          "blockHash": "0xe04e564d52688cbe6c918684fbaa4454e0f62846b2a5ea28cf3c63d0ca03b006",
          "blockNumber": "0x12beff6",
          "transactionHash": "0x3a87e89d4c88dbfc00c7da382356691220977457543ebee6e8311d4d2301aab9",
          "transactionIndex": "0x0",
          "logIndex": "0xe",
          "removed": false
        },
        {
          "address": "0x70e36f6BF80a52b3B46b3aF8e106CC0ed743E8e4",
          "topics": [
            "0xddf252ad1be2c89b69c2b068fc378daa952ba7f163c4a11628f55a4df523b3ef",
            "0x0000000000000000000000001b57f4058863597071548a8b19fb2bd2b2ec3b6e",
            "0x00000000000000000000000070e36f6bf80a52b3b46b3af8e106cc0ed743e8e4"
          ],
          "data": "0x0000000000000000000000000000000000000000000000000000000879caece1",
          "blockHash": "0xe04e564d52688cbe6c918684fbaa4454e0f62846b2a5ea28cf3c63d0ca03b006",
          "blockNumber": "0x12beff6",
          "transactionHash": "0x3a87e89d4c88dbfc00c7da382356691220977457543ebee6e8311d4d2301aab9",
          "transactionIndex": "0x0",
          "logIndex": "0xf",
          "removed": false
        },
        {
          "address": "0x70e36f6BF80a52b3B46b3aF8e106CC0ed743E8e4",
          "topics": [
            "0xe5b754fb1abb7f01b499791d0b820ae3b6af3424ac1c59768edb53f4ec31a929"
          ],
          "data": "0x0000000000000000000000001b57f4058863597071548a8b19fb2bd2b2ec3b6e00000000000000000000000000000000000000000000000067d51f5d0006c28a0000000000000000000000000000000000000000000000000000000879caece1",
          "blockHash": "0xe04e564d52688cbe6c918684fbaa4454e0f62846b2a5ea28cf3c63d0ca03b006",
          "blockNumber": "0x12beff6",
          "transactionHash": "0x3a87e89d4c88dbfc00c7da382356691220977457543ebee6e8311d4d2301aab9",
          "transactionIndex": "0x0",
          "logIndex": "0x10",
          "removed": false
        },
        {
          "address": "0xC02aaA39b223FE8D0A0e5C4F27eAD9083C756Cc2",
          "topics": [
            "0xddf252ad1be2c89b69c2b068fc378daa952ba7f163c4a11628f55a4df523b3ef",
            "0x000000000000000000000000ea4ba4ce14fdd287f380b55419b1c5b6c3f22ab6",
            "0x000000000000000000000000e592427a0aece92de3edee1f18e0157c05861564"
          ],
          "data": "0x00000000000000000000000000000000000000000000000001cc92596b27b17b",
          "blockHash": "0xe04e564d52688cbe6c918684fbaa4454e0f62846b2a5ea28cf3c63d0ca03b006",
          "blockNumber": "0x12beff6",
          "transactionHash": "0x3a87e89d4c88dbfc00c7da382356691220977457543ebee6e8311d4d2301aab9",
          "transactionIndex": "0x0",
          "logIndex": "0x11",
          "removed": false
        },
        {
          "address": "0xc00e94Cb662C3520282E6f5717214004A7f26888",
          "topics": [
            "0xddf252ad1be2c89b69c2b068fc378daa952ba7f163c4a11628f55a4df523b3ef",
            "0x0000000000000000000000001b57f4058863597071548a8b19fb2bd2b2ec3b6e",
            "0x000000000000000000000000ea4ba4ce14fdd287f380b55419b1c5b6c3f22ab6"
          ],
          "data": "0x00000000000000000000000000000000000000000000000067d51f5d0006c28a",
          "blockHash": "0xe04e564d52688cbe6c918684fbaa4454e0f62846b2a5ea28cf3c63d0ca03b006",
          "blockNumber": "0x12beff6",
          "transactionHash": "0x3a87e89d4c88dbfc00c7da382356691220977457543ebee6e8311d4d2301aab9",
          "transactionIndex": "0x0",
          "logIndex": "0x12",
          "removed": false
        },
        {
          "address": "0xea4Ba4CE14fdd287f380b55419B1C5b6c3f22ab6",
          "topics": [
            "0xc42079f94a6350d7e6235f29174924f928cc2ac818eb64fed8004e115fbcca67",
            "0x000000000000000000000000e592427a0aece92de3edee1f18e0157c05861564",
            "0x000000000000000000000000e592427a0aece92de3edee1f18e0157c05861564"
          ],
          "data": "0x00000000000000000000000000000000000000000000000067d51f5d0006c28afffffffffffffffffffffffffffffffffffffffffffffffffe336da694d84e85000000000000000000000000000000000000000021ba779e35d3fe52502428c600000000000000000000000000000000000000000000002cbc830e9b1851d172ffffffffffffffffffffffffffffffffffffffffffffffffffffffffffff61a5",
          "blockHash": "0xe04e564d52688cbe6c918684fbaa4454e0f62846b2a5ea28cf3c63d0ca03b006",
          "blockNumber": "0x12beff6",
          "transactionHash": "0x3a87e89d4c88dbfc00c7da382356691220977457543ebee6e8311d4d2301aab9",
          "transactionIndex": "0x0",
          "logIndex": "0x13",
          "removed": false
        },
        {
          "address": "0xA0b86991c6218b36c1d19D4a2e9Eb0cE3606eB48",
          "topics": [
            "0xddf252ad1be2c89b69c2b068fc378daa952ba7f163c4a11628f55a4df523b3ef",
            "0x0000000000000000000000008ad599c3a0ff1de082011efddc58f1908eb6e6d8",
            "0x0000000000000000000000001b57f4058863597071548a8b19fb2bd2b2ec3b6e"
          ],
          "data": "0x00000000000000000000000000000000000000000000000000000000183e4922",
          "blockHash": "0xe04e564d52688cbe6c918684fbaa4454e0f62846b2a5ea28cf3c63d0ca03b006",
          "blockNumber": "0x12beff6",
          "transactionHash": "0x3a87e89d4c88dbfc00c7da382356691220977457543ebee6e8311d4d2301aab9",
          "transactionIndex": "0x0",
          "logIndex": "0x14",
          "removed": false
        },
        {
          "address": "0xC02aaA39b223FE8D0A0e5C4F27eAD9083C756Cc2",
          "topics": [
            "0xddf252ad1be2c89b69c2b068fc378daa952ba7f163c4a11628f55a4df523b3ef",
            "0x000000000000000000000000e592427a0aece92de3edee1f18e0157c05861564",
            "0x0000000000000000000000008ad599c3a0ff1de082011efddc58f1908eb6e6d8"
          ],
          "data": "0x00000000000000000000000000000000000000000000000001cc92596b27b17b",
          "blockHash": "0xe04e564d52688cbe6c918684fbaa4454e0f62846b2a5ea28cf3c63d0ca03b006",
          "blockNumber": "0x12beff6",
          "transactionHash": "0x3a87e89d4c88dbfc00c7da382356691220977457543ebee6e8311d4d2301aab9",
          "transactionIndex": "0x0",
          "logIndex": "0x15",
          "removed": false
        },
        {
          "address": "0x8ad599c3A0ff1De082011EFDDc58f1908eb6e6D8",
          "topics": [
            "0xc42079f94a6350d7e6235f29174924f928cc2ac818eb64fed8004e115fbcca67",
            "0x000000000000000000000000e592427a0aece92de3edee1f18e0157c05861564",
            "0x0000000000000000000000001b57f4058863597071548a8b19fb2bd2b2ec3b6e"
          ],
          "data": "0xffffffffffffffffffffffffffffffffffffffffffffffffffffffffe7c1b6de00000000000000000000000000000000000000000000000001cc92596b27b17b00000000000000000000000000000000000045a244ca560dee271f00318f0e9900000000000000000000000000000000000000000000000069bff26c0732e59f000000000000000000000000000000000000000000000000000000000002fcc2",
          "blockHash": "0xe04e564d52688cbe6c918684fbaa4454e0f62846b2a5ea28cf3c63d0ca03b006",
          "blockNumber": "0x12beff6",
          "transactionHash": "0x3a87e89d4c88dbfc00c7da382356691220977457543ebee6e8311d4d2301aab9",
          "transactionIndex": "0x0",
          "logIndex": "0x16",
          "removed": false
        },
        {
          "address": "0xA0b86991c6218b36c1d19D4a2e9Eb0cE3606eB48",
          "topics": [
            "0xddf252ad1be2c89b69c2b068fc378daa952ba7f163c4a11628f55a4df523b3ef",
            "0x0000000000000000000000001b57f4058863597071548a8b19fb2bd2b2ec3b6e",
            "0x000000000000000000000000bbbbbbbbbb9cc5e90e3b3af64bdaf62c37eeffcb"
          ],
          "data": "0x0000000000000000000000000000000000000000000000000000000017383d4f",
          "blockHash": "0xe04e564d52688cbe6c918684fbaa4454e0f62846b2a5ea28cf3c63d0ca03b006",
          "blockNumber": "0x12beff6",
          "transactionHash": "0x3a87e89d4c88dbfc00c7da382356691220977457543ebee6e8311d4d2301aab9",
          "transactionIndex": "0x0",
          "logIndex": "0x17",
          "removed": false
        },
        {
          "address": "0xC02aaA39b223FE8D0A0e5C4F27eAD9083C756Cc2",
          "topics": [
            "0xddf252ad1be2c89b69c2b068fc378daa952ba7f163c4a11628f55a4df523b3ef",
            "0x0000000000000000000000008ad599c3a0ff1de082011efddc58f1908eb6e6d8",
            "0x0000000000000000000000001b57f4058863597071548a8b19fb2bd2b2ec3b6e"
          ],
          "data": "0x0000000000000000000000000000000000000000000000000000317c11ee2818",
          "blockHash": "0xe04e564d52688cbe6c918684fbaa4454e0f62846b2a5ea28cf3c63d0ca03b006",
          "blockNumber": "0x12beff6",
          "transactionHash": "0x3a87e89d4c88dbfc00c7da382356691220977457543ebee6e8311d4d2301aab9",
          "transactionIndex": "0x0",
          "logIndex": "0x18",
          "removed": false
        },
        {
          "address": "0xA0b86991c6218b36c1d19D4a2e9Eb0cE3606eB48",
          "topics": [
            "0xddf252ad1be2c89b69c2b068fc378daa952ba7f163c4a11628f55a4df523b3ef",
            "0x0000000000000000000000001b57f4058863597071548a8b19fb2bd2b2ec3b6e",
            "0x0000000000000000000000008ad599c3a0ff1de082011efddc58f1908eb6e6d8"
          ],
          "data": "0x0000000000000000000000000000000000000000000000000000000000029ed6",
          "blockHash": "0xe04e564d52688cbe6c918684fbaa4454e0f62846b2a5ea28cf3c63d0ca03b006",
          "blockNumber": "0x12beff6",
          "transactionHash": "0x3a87e89d4c88dbfc00c7da382356691220977457543ebee6e8311d4d2301aab9",
          "transactionIndex": "0x0",
          "logIndex": "0x19",
          "removed": false
        },
        {
          "address": "0x8ad599c3A0ff1De082011EFDDc58f1908eb6e6D8",
          "topics": [
            "0xc42079f94a6350d7e6235f29174924f928cc2ac818eb64fed8004e115fbcca67",
            "0x000000000000000000000000e592427a0aece92de3edee1f18e0157c05861564",
            "0x0000000000000000000000001b57f4058863597071548a8b19fb2bd2b2ec3b6e"
          ],
          "data": "0x0000000000000000000000000000000000000000000000000000000000029ed6ffffffffffffffffffffffffffffffffffffffffffffffffffffce83ee11d7e800000000000000000000000000000000000045a244c9de42f55539222440cd7b00000000000000000000000000000000000000000000000069bff26c0732e59f000000000000000000000000000000000000000000000000000000000002fcc2",
          "blockHash": "0xe04e564d52688cbe6c918684fbaa4454e0f62846b2a5ea28cf3c63d0ca03b006",
          "blockNumber": "0x12beff6",
          "transactionHash": "0x3a87e89d4c88dbfc00c7da382356691220977457543ebee6e8311d4d2301aab9",
          "transactionIndex": "0x0",
          "logIndex": "0x1a",
          "removed": false
        },
        {
          "address": "0xC02aaA39b223FE8D0A0e5C4F27eAD9083C756Cc2",
          "topics": [
            "0x7fcf532c15f0a6db0bd6d0e038bea71d30d808c7d98cb3bf7268a95bf5081b65",
            "0x0000000000000000000000001b57f4058863597071548a8b19fb2bd2b2ec3b6e"
          ],
          "data": "0x0000000000000000000000000000000000000000000000000000317c11ee2818",
          "blockHash": "0xe04e564d52688cbe6c918684fbaa4454e0f62846b2a5ea28cf3c63d0ca03b006",
          "blockNumber": "0x12beff6",
          "transactionHash": "0x3a87e89d4c88dbfc00c7da382356691220977457543ebee6e8311d4d2301aab9",
          "transactionIndex": "0x0",
          "logIndex": "0x1b",
          "removed": false
        },
        {
          "address": "0xA0b86991c6218b36c1d19D4a2e9Eb0cE3606eB48",
          "topics": [
            "0xddf252ad1be2c89b69c2b068fc378daa952ba7f163c4a11628f55a4df523b3ef",
            "0x0000000000000000000000001b57f4058863597071548a8b19fb2bd2b2ec3b6e",
            "0x0000000000000000000000001662de05d43c3a6512e0a6fde48f074cd2384889"
          ],
          "data": "0x000000000000000000000000000000000000000000000000000000000081b67e",
          "blockHash": "0xe04e564d52688cbe6c918684fbaa4454e0f62846b2a5ea28cf3c63d0ca03b006",
          "blockNumber": "0x12beff6",
          "transactionHash": "0x3a87e89d4c88dbfc00c7da382356691220977457543ebee6e8311d4d2301aab9",
          "transactionIndex": "0x0",
          "logIndex": "0x1c",
          "removed": false
        },
        {
          "address": "0xA0b86991c6218b36c1d19D4a2e9Eb0cE3606eB48",
          "topics": [
            "0xddf252ad1be2c89b69c2b068fc378daa952ba7f163c4a11628f55a4df523b3ef",
            "0x0000000000000000000000001b57f4058863597071548a8b19fb2bd2b2ec3b6e",
            "0x0000000000000000000000007d665dbd0cb2ab8d9645d1be78e5eafd8daa1e97"
          ],
          "data": "0x000000000000000000000000000000000000000000000000000000000081b67f",
          "blockHash": "0xe04e564d52688cbe6c918684fbaa4454e0f62846b2a5ea28cf3c63d0ca03b006",
          "blockNumber": "0x12beff6",
          "transactionHash": "0x3a87e89d4c88dbfc00c7da382356691220977457543ebee6e8311d4d2301aab9",
          "transactionIndex": "0x0",
          "logIndex": "0x1d",
          "removed": false
        }
      ],
      "status": "0x1",
      "logsBloom": "0x400000024000000000000040000000a0000000000010400000000000000800001000000000200301000002000000080102000000080020020000000004040000000000000010000a2800100800000000000200000040000000000020002100000010000000000000000010000008200000000000000004000020001000880000000001000000000800000000003000060004000021200020000000004000088000020000000028004000000080220400000010000000000100000000000000002000000280001000000000000000000000010000000000004002000210002000000020000100000000000020008000010431000000100000002020040000000c",
      "type": "0x2",
      "effectiveGasPrice": "0x4a38a989e"
    }
  ],
  "libraries": [],
  "pending": [],
  "returns": {},
  "timestamp": 1713133012,
  "chain": 1,
  "commit": "3cca3f8"
}