{
  "transactions": [
    {
      "hash": null,
      "transactionType": "CALL",
      "contractName": null,
      "contractAddress": "0x0000000000000000000000000000000000000000",
      "function": "setApprove(address[],address[],uint256,bool)",
      "arguments": [
        "[0x0D8775F648430679A709E98d2b0Cb6250d2887EF, 0x6B175474E89094C44Da98b954EedeAC495271d0F, 0xC02aaA39b223FE8D0A0e5C4F27eAD9083C756Cc2, 0xA0b86991c6218b36c1d19D4a2e9Eb0cE3606eB48, 0xdAC17F958D2ee523a2206206994597C13D831ec7, 0x2260FAC5E5542a773Aa44fBCfeDf7C193bc2C599, 0xE41d2489571d322189246DaFA5ebDe1F4699F498, 0x89d24A6b4CcB1B6fAA2625fE562bDD9a23260359, 0x1f9840a85d5aF5bf1D1762F925BDADdC4201F984, 0xc00e94Cb662C3520282E6f5717214004A7f26888, 0x0000000000085d4780B73119b644AE5ecd22b376, 0x514910771AF9Ca656af840dff83E8264EcF986CA, 0x9f8F72aA9304c8B593d555F12eF6589cC3A579A2, 0x6B3595068778DD592e39A122f4f5a5cF09C90fE2, 0x7Fc66500c84A76Ad7e9c93437bFc5Ac33E2DDaE9, 0x0bc529c00C6401aEF6D220BE8C6Ea1667F6Ad93e, 0x8E870D67F660D95d5be530380D0eC0bd388289E1]",
        "[0xBBBBBbbBBb9cC5e90e3b3Af64bdAF62C37EEFFCb, 0xE592427A0AEce92De3Edee1F18E0157C05861564]",
        "115792089237316195423570985008687907853269984665640564039457584007913129639935",
        "false"
      ],
      "transaction": {
        "type": "0x02",
        "from": "0x4a4f8be8217bc82588383ac91bad9b3ab34f345f",
        "to": "0x0000000000000000000000000000000000000000",
        "gas": "0x9d86",
        "value": "0x0",
        "data": "0xfbf78349000000000000000000000000000000000000000000000000000000000000008000000000000000000000000000000000000000000000000000000000000002c0ffffffffffffffffffffffffffffffffffffffffffffffffffffffffffffffff000000000000000000000000000000000000000000000000000000000000000000000000000000000000000000000000000000000000000000000000000000110000000000000000000000000d8775f648430679a709e98d2b0cb6250d2887ef0000000000000000000000006b175474e89094c44da98b954eedeac495271d0f000000000000000000000000c02aaa39b223fe8d0a0e5c4f27ead9083c756cc2000000000000000000000000a0b86991c6218b36c1d19d4a2e9eb0ce3606eb48000000000000000000000000dac17f958d2ee523a2206206994597c13d831ec70000000000000000000000002260fac5e5542a773aa44fbcfedf7c193bc2c599000000000000000000000000e41d2489571d322189246dafa5ebde1f4699f49800000000000000000000000089d24a6b4ccb1b6faa2625fe562bdd9a232603590000000000000000000000001f9840a85d5af5bf1d1762f925bdaddc4201f984000000000000000000000000c00e94cb662c3520282e6f5717214004a7f268880000000000000000000000000000000000085d4780b73119b644ae5ecd22b376000000000000000000000000514910771af9ca656af840dff83e8264ecf986ca0000000000000000000000009f8f72aa9304c8b593d555f12ef6589cc3a579a20000000000000000000000006b3595068778dd592e39a122f4f5a5cf09c90fe20000000000000000000000007fc66500c84a76ad7e9c93437bfc5ac33e2ddae90000000000000000000000000bc529c00c6401aef6d220be8c6ea1667f6ad93e0000000000000000000000008e870d67f660d95d5be530380d0ec0bd388289e10000000000000000000000000000000000000000000000000000000000000002000000000000000000000000bbbbbbbbbb9cc5e90e3b3af64bdaf62c37eeffcb000000000000000000000000e592427a0aece92de3edee1f18e0157c05861564",
        "nonce": "0x0",
        "accessList": []
      },
      "additionalContracts": [],
      "isFixedGasLimit": false
    }
  ],
  "receipts": [],
  "libraries": [],
  "pending": [],
  "returns": {},
  "timestamp": 1713122740,
  "chain": 1,
  "commit": "3cca3f8"
}