{
  "transactions": [
    {
      "hash": "0xe08fbcd0e461db77fed4c30db2bb0cf24d1613898aaa1fbd54841b9599ac50cc",
      "transactionType": "CALL",
      "contractName": null,
      "contractAddress": "0x1b57f4058863597071548a8b19Fb2bd2B2EC3b6e",
      "function": "setApprove(address[],address[],uint256,bool)",
      "arguments": [
        "[0x0D8775F648430679A709E98d2b0Cb6250d2887EF, 0x6B175474E89094C44Da98b954EedeAC495271d0F, 0xC02aaA39b223FE8D0A0e5C4F27eAD9083C756Cc2, 0xA0b86991c6218b36c1d19D4a2e9Eb0cE3606eB48, 0xdAC17F958D2ee523a2206206994597C13D831ec7, 0x2260FAC5E5542a773Aa44fBCfeDf7C193bc2C599, 0xE41d2489571d322189246DaFA5ebDe1F4699F498, 0x89d24A6b4CcB1B6fAA2625fE562bDD9a23260359, 0x1f9840a85d5aF5bf1D1762F925BDADdC4201F984, 0xc00e94Cb662C3520282E6f5717214004A7f26888, 0x0000000000085d4780B73119b644AE5ecd22b376, 0x514910771AF9Ca656af840dff83E8264EcF986CA, 0x9f8F72aA9304c8B593d555F12eF6589cC3A579A2, 0x6B3595068778DD592e39A122f4f5a5cF09C90fE2, 0x7Fc66500c84A76Ad7e9c93437bFc5Ac33E2DDaE9, 0x0bc529c00C6401aEF6D220BE8C6Ea1667F6Ad93e, 0x8E870D67F660D95d5be530380D0eC0bd388289E1]",
        "[0xBBBBBbbBBb9cC5e90e3b3Af64bdAF62C37EEFFCb, 0xE592427A0AEce92De3Edee1F18E0157C05861564]",
        "115792089237316195423570985008687907853269984665640564039457584007913129639935",
        "false"
      ],
      "transaction": {
        "type": "0x02",
        "from": "0x1662de05d43c3a6512e0a6fde48f074cd2384889",
        "to": "0x1b57f4058863597071548a8b19fb2bd2b2ec3b6e",
        "gas": "0x16d8f0",
        "value": "0x0",
        "data": "0xfbf78349000000000000000000000000000000000000000000000000000000000000008000000000000000000000000000000000000000000000000000000000000002c0ffffffffffffffffffffffffffffffffffffffffffffffffffffffffffffffff000000000000000000000000000000000000000000000000000000000000000000000000000000000000000000000000000000000000000000000000000000110000000000000000000000000d8775f648430679a709e98d2b0cb6250d2887ef0000000000000000000000006b175474e89094c44da98b954eedeac495271d0f000000000000000000000000c02aaa39b223fe8d0a0e5c4f27ead9083c756cc2000000000000000000000000a0b86991c6218b36c1d19d4a2e9eb0ce3606eb48000000000000000000000000dac17f958d2ee523a2206206994597c13d831ec70000000000000000000000002260fac5e5542a773aa44fbcfedf7c193bc2c599000000000000000000000000e41d2489571d322189246dafa5ebde1f4699f49800000000000000000000000089d24a6b4ccb1b6faa2625fe562bdd9a232603590000000000000000000000001f9840a85d5af5bf1d1762f925bdaddc4201f984000000000000000000000000c00e94cb662c3520282e6f5717214004a7f268880000000000000000000000000000000000085d4780b73119b644ae5ecd22b376000000000000000000000000514910771af9ca656af840dff83e8264ecf986ca0000000000000000000000009f8f72aa9304c8b593d555f12ef6589cc3a579a20000000000000000000000006b3595068778dd592e39a122f4f5a5cf09c90fe20000000000000000000000007fc66500c84a76ad7e9c93437bfc5ac33e2ddae90000000000000000000000000bc529c00c6401aef6d220be8c6ea1667f6ad93e0000000000000000000000008e870d67f660d95d5be530380d0ec0bd388289e10000000000000000000000000000000000000000000000000000000000000002000000000000000000000000bbbbbbbbbb9cc5e90e3b3af64bdaf62c37eeffcb000000000000000000000000e592427a0aece92de3edee1f18e0157c05861564",
        "nonce": "0x2",
        "accessList": []
      },
      "additionalContracts": [],
      "isFixedGasLimit": false
    },
    {
      "hash": null,
      "transactionType": "CALL",
      "contractName": null,
      "contractAddress": "0x1b57f4058863597071548a8b19Fb2bd2B2EC3b6e",
      "function": "setApprove(address[],address[],uint256,bool)",
      "arguments": [
        "[0x0D8775F648430679A709E98d2b0Cb6250d2887EF, 0x6B175474E89094C44Da98b954EedeAC495271d0F, 0xC02aaA39b223FE8D0A0e5C4F27eAD9083C756Cc2, 0xA0b86991c6218b36c1d19D4a2e9Eb0cE3606eB48, 0xdAC17F958D2ee523a2206206994597C13D831ec7, 0x2260FAC5E5542a773Aa44fBCfeDf7C193bc2C599, 0xE41d2489571d322189246DaFA5ebDe1F4699F498, 0x89d24A6b4CcB1B6fAA2625fE562bDD9a23260359, 0x1f9840a85d5aF5bf1D1762F925BDADdC4201F984, 0xc00e94Cb662C3520282E6f5717214004A7f26888, 0x0000000000085d4780B73119b644AE5ecd22b376, 0x514910771AF9Ca656af840dff83E8264EcF986CA, 0x9f8F72aA9304c8B593d555F12eF6589cC3A579A2, 0x6B3595068778DD592e39A122f4f5a5cF09C90fE2, 0x7Fc66500c84A76Ad7e9c93437bFc5Ac33E2DDaE9, 0x0bc529c00C6401aEF6D220BE8C6Ea1667F6Ad93e, 0x8E870D67F660D95d5be530380D0eC0bd388289E1]",
        "[0x6C8c6b02E7b2BE14d4fA6022Dfd6d75921D90E4E, 0x5d3a536E4D6DbD6114cc1Ead35777bAB948E3643, 0x4Ddc2D193948926D02f9B1fE9e1daa0718270ED5, 0x39AA39c021dfbaE8faC545936693aC917d5E7563, 0xf650C3d88D12dB855b8bf7D11Be6C55A4e07dCC9, 0x0000000000000000000000000000000000000000, 0xccF4429DB6322D5C611ee964527D42E5d685DD6a, 0xB3319f5D18Bc0D84dD1b4825Dcde5d5f7266d407, 0xF5DCe57282A584D2746FaF1593d3121Fcac444dC, 0x35A18000230DA775CAc24873d00Ff85BccdeD550, 0x70e36f6BF80a52b3B46b3aF8e106CC0ed743E8e4, 0x12392F67bdf24faE0AF363c24aC620a2f67DAd86, 0xFAce851a4921ce59e912d19329929CE6da6EB0c7, 0x95b4eF2869eBD94BEb4eEE400a99824BF5DC325b, 0xe65cdB6479BaC1e22340E4E755fAE7E509EcD06c, 0x80a2AE356fc9ef4305676f7a3E2Ed04e12C33946, 0x041171993284df560249B57358F931D9eB7b925D]",
        "115792089237316195423570985008687907853269984665640564039457584007913129639935",
        "true"
      ],
      "transaction": {
        "type": "0x02",
        "from": "0x1662de05d43c3a6512e0a6fde48f074cd2384889",
        "to": "0x1b57f4058863597071548a8b19fb2bd2b2ec3b6e",
        "gas": "0xd8628",
        "value": "0x0",
        "data": "0xfbf78349000000000000000000000000000000000000000000000000000000000000008000000000000000000000000000000000000000000000000000000000000002c0ffffffffffffffffffffffffffffffffffffffffffffffffffffffffffffffff000000000000000000000000000000000000000000000000000000000000000100000000000000000000000000000000000000000000000000000000000000110000000000000000000000000d8775f648430679a709e98d2b0cb6250d2887ef0000000000000000000000006b175474e89094c44da98b954eedeac495271d0f000000000000000000000000c02aaa39b223fe8d0a0e5c4f27ead9083c756cc2000000000000000000000000a0b86991c6218b36c1d19d4a2e9eb0ce3606eb48000000000000000000000000dac17f958d2ee523a2206206994597c13d831ec70000000000000000000000002260fac5e5542a773aa44fbcfedf7c193bc2c599000000000000000000000000e41d2489571d322189246dafa5ebde1f4699f49800000000000000000000000089d24a6b4ccb1b6faa2625fe562bdd9a232603590000000000000000000000001f9840a85d5af5bf1d1762f925bdaddc4201f984000000000000000000000000c00e94cb662c3520282e6f5717214004a7f268880000000000000000000000000000000000085d4780b73119b644ae5ecd22b376000000000000000000000000514910771af9ca656af840dff83e8264ecf986ca0000000000000000000000009f8f72aa9304c8b593d555f12ef6589cc3a579a20000000000000000000000006b3595068778dd592e39a122f4f5a5cf09c90fe20000000000000000000000007fc66500c84a76ad7e9c93437bfc5ac33e2ddae90000000000000000000000000bc529c00c6401aef6d220be8c6ea1667f6ad93e0000000000000000000000008e870d67f660d95d5be530380d0ec0bd388289e100000000000000000000000000000000000000000000000000000000000000110000000000000000000000006c8c6b02e7b2be14d4fa6022dfd6d75921d90e4e0000000000000000000000005d3a536e4d6dbd6114cc1ead35777bab948e36430000000000000000000000004ddc2d193948926d02f9b1fe9e1daa0718270ed500000000000000000000000039aa39c021dfbae8fac545936693ac917d5e7563000000000000000000000000f650c3d88d12db855b8bf7d11be6c55a4e07dcc90000000000000000000000000000000000000000000000000000000000000000000000000000000000000000ccf4429db6322d5c611ee964527d42e5d685dd6a000000000000000000000000b3319f5d18bc0d84dd1b4825dcde5d5f7266d407000000000000000000000000f5dce57282a584d2746faf1593d3121fcac444dc00000000000000000000000035a18000230da775cac24873d00ff85bccded55000000000000000000000000070e36f6bf80a52b3b46b3af8e106cc0ed743e8e400000000000000000000000012392f67bdf24fae0af363c24ac620a2f67dad86000000000000000000000000face851a4921ce59e912d19329929ce6da6eb0c700000000000000000000000095b4ef2869ebd94beb4eee400a99824bf5dc325b000000000000000000000000e65cdb6479bac1e22340e4e755fae7e509ecd06c00000000000000000000000080a2ae356fc9ef4305676f7a3e2ed04e12c33946000000000000000000000000041171993284df560249b57358f931d9eb7b925d",
        "nonce": "0x3",
        "accessList": []
      },
      "additionalContracts": [],
      "isFixedGasLimit": false
    }
  ],
  "receipts": [],
  "libraries": [],
  "pending": [
    "0xe08fbcd0e461db77fed4c30db2bb0cf24d1613898aaa1fbd54841b9599ac50cc"
  ],
  "returns": {},
  "timestamp": 1713123399,
  "chain": 1,
  "commit": "3cca3f8"
}