{
  "transactions": [
    {
      "hash": "0x8013c1eab493e21a4a6877beb8b744dc880fa8a2d991e98f6c393d1721a2475c",
      "transactionType": "CALL",
      "contractName": "WBTC",
      "contractAddress": "0x922684dc03C9DDEdcF4661b8d0B612B3a112eCd3",
      "function": "approve(address,uint256)",
      "arguments": [
        "0xD6cE77ffA909180bD2C26f248e88693bEfDB5A64",
        "115792089237316195423570985008687907853269984665640564039457584007913129639935"
      ],
      "transaction": {
        "type": "0x02",
        "from": "0x4a4f8be8217bc82588383ac91bad9b3ab34f345f",
        "to": "0x922684dc03c9ddedcf4661b8d0b612b3a112ecd3",
        "gas": "0x8f57",
        "value": "0x0",
        "data": "0x095ea7b3000000000000000000000000d6ce77ffa909180bd2c26f248e88693befdb5a64ffffffffffffffffffffffffffffffffffffffffffffffffffffffffffffffff",
        "nonce": "0x38",
        "accessList": []
      },
      "additionalContracts": [],
      "isFixedGasLimit": false
    },
    {
      "hash": "0x6a516959f62c27888116fa979281cdaea3a12ff1fc37e0181d6d5a0f7106c2de",
      "transactionType": "CALL",
      "contractName": "CErc20",
      "contractAddress": "0xD6cE77ffA909180bD2C26f248e88693bEfDB5A64",
      "function": "mint(uint256)",
      "arguments": [
        "1000000000000000000"
      ],
      "transaction": {
        "type": "0x02",
        "from": "0x4a4f8be8217bc82588383ac91bad9b3ab34f345f",
        "to": "0xd6ce77ffa909180bd2c26f248e88693befdb5a64",
        "gas": "0x32687",
        "value": "0x0",
        "data": "0xa0712d680000000000000000000000000000000000000000000000000de0b6b3a7640000",
        "nonce": "0x39",
        "accessList": []
      },
      "additionalContracts": [],
      "isFixedGasLimit": false
    }
  ],
  "receipts": [
    {
      "transactionHash": "0x8013c1eab493e21a4a6877beb8b744dc880fa8a2d991e98f6c393d1721a2475c",
      "transactionIndex": "0x42",
      "blockHash": "0x6cfc936a53841bc72e8f92c2ac5cd6f82e2d0d9d6f2a6e3ee8da39ed98a90e53",
      "blockNumber": "0x54f06a",
      "from": "0x4A4F8BE8217BC82588383AC91bad9B3aB34F345f",
      "to": "0x922684dc03C9DDEdcF4661b8d0B612B3a112eCd3",
      "cumulativeGasUsed": "0x38aa60",
      "gasUsed": "0x67c7",
      "contractAddress": null,
      "logs": [
        {
          "address": "0x922684dc03C9DDEdcF4661b8d0B612B3a112eCd3",
          "topics": [
            "0x8c5be1e5ebec7d5bd14f71427d1e84f3dd0314c0f7b2291e5b200ac8c7c3b925",
            "0x0000000000000000000000004a4f8be8217bc82588383ac91bad9b3ab34f345f",
            "0x000000000000000000000000d6ce77ffa909180bd2c26f248e88693befdb5a64"
          ],
          "data": "0xffffffffffffffffffffffffffffffffffffffffffffffffffffffffffffffff",
          "blockHash": "0x6cfc936a53841bc72e8f92c2ac5cd6f82e2d0d9d6f2a6e3ee8da39ed98a90e53",
          "blockNumber": "0x54f06a",
          "transactionHash": "0x8013c1eab493e21a4a6877beb8b744dc880fa8a2d991e98f6c393d1721a2475c",
          "transactionIndex": "0x42",
          "logIndex": "0x58",
          "removed": false
        }
      ],
      "status": "0x1",
      "logsBloom": "0x00000000000000000000000000000000000000200000000020000000000000000000000000000000000000000000000000000000000000000000000000200000000000100000000000000000008000000000000000000000000000000000010000000000000000000000000000000000200000000000000000000000000500004000000000000000000000000000000000000000000000000000000000000000020000000000000000000000000000000000000000000000000000000000000000000000000000000000000000000000000000000000000000000000000000000010000000000000000000000000000000000000000000000000000000000000",
      "type": "0x2",
      "effectiveGasPrice": "0xb9ef8ad0"
    },
    {
      "transactionHash": "0x6a516959f62c27888116fa979281cdaea3a12ff1fc37e0181d6d5a0f7106c2de",
      "transactionIndex": "0x16",
      "blockHash": "0xa510e6f463ad445f687917f6fadcdcaace8ea64351b62fa9093dd4fa53310489",
      "blockNumber": "0x54f06b",
      "from": "0x4A4F8BE8217BC82588383AC91bad9B3aB34F345f",
      "to": "0xD6cE77ffA909180bD2C26f248e88693bEfDB5A64",
      "cumulativeGasUsed": "0xf02f3",
      "gasUsed": "0x22779",
      "contractAddress": null,
      "logs": [
        {
          "address": "0xD6cE77ffA909180bD2C26f248e88693bEfDB5A64",
          "topics": [
            "0x4dec04e750ca11537cabcd8a9eab06494de08da3735bc8871cd41250e190bc04"
          ],
          "data": "0x0000000000000000000000000000000000000000000000000de0b6b3a764000000000000000000000000000000000000000000000000000000000000000000000000000000000000000000000000000000000000000000000de0bd49b49e36c70000000000000000000000000000000000000000000000000000000000000000",
          "blockHash": "0xa510e6f463ad445f687917f6fadcdcaace8ea64351b62fa9093dd4fa53310489",
          "blockNumber": "0x54f06b",
          "transactionHash": "0x6a516959f62c27888116fa979281cdaea3a12ff1fc37e0181d6d5a0f7106c2de",
          "transactionIndex": "0x16",
          "logIndex": "0xd",
          "removed": false
        },
        {
          "address": "0x922684dc03C9DDEdcF4661b8d0B612B3a112eCd3",
          "topics": [
            "0xddf252ad1be2c89b69c2b068fc378daa952ba7f163c4a11628f55a4df523b3ef",
            "0x0000000000000000000000004a4f8be8217bc82588383ac91bad9b3ab34f345f",
            "0x000000000000000000000000d6ce77ffa909180bd2c26f248e88693befdb5a64"
          ],
          "data": "0x0000000000000000000000000000000000000000000000000de0b6b3a7640000",
          "blockHash": "0xa510e6f463ad445f687917f6fadcdcaace8ea64351b62fa9093dd4fa53310489",
          "blockNumber": "0x54f06b",
          "transactionHash": "0x6a516959f62c27888116fa979281cdaea3a12ff1fc37e0181d6d5a0f7106c2de",
          "transactionIndex": "0x16",
          "logIndex": "0xe",
          "removed": false
        },
        {
          "address": "0xD6cE77ffA909180bD2C26f248e88693bEfDB5A64",
          "topics": [
            "0x4c209b5fc8ad50758f13e2e1088ba56a560dff690a1c6fef26394f4c03821c4f"
          ],
          "data": "0x0000000000000000000000004a4f8be8217bc82588383ac91bad9b3ab34f345f0000000000000000000000000000000000000000000000000de0b6b3a7640000000000000000000000000000000000000000000000000000000000012a05f200",
          "blockHash": "0xa510e6f463ad445f687917f6fadcdcaace8ea64351b62fa9093dd4fa53310489",
          "blockNumber": "0x54f06b",
          "transactionHash": "0x6a516959f62c27888116fa979281cdaea3a12ff1fc37e0181d6d5a0f7106c2de",
          "transactionIndex": "0x16",
          "logIndex": "0xf",
          "removed": false
        },
        {
          "address": "0xD6cE77ffA909180bD2C26f248e88693bEfDB5A64",
          "topics": [
            "0xddf252ad1be2c89b69c2b068fc378daa952ba7f163c4a11628f55a4df523b3ef",
            "0x000000000000000000000000d6ce77ffa909180bd2c26f248e88693befdb5a64",
            "0x0000000000000000000000004a4f8be8217bc82588383ac91bad9b3ab34f345f"
          ],
          "data": "0x000000000000000000000000000000000000000000000000000000012a05f200",
          "blockHash": "0xa510e6f463ad445f687917f6fadcdcaace8ea64351b62fa9093dd4fa53310489",
          "blockNumber": "0x54f06b",
          "transactionHash": "0x6a516959f62c27888116fa979281cdaea3a12ff1fc37e0181d6d5a0f7106c2de",
          "transactionIndex": "0x16",
          "logIndex": "0x10",
          "removed": false
        }
      ],
      "status": "0x1",
      "logsBloom": "0x00000020000000000000000000000000000000200000400020004000000001000000000000000000000000000000000000000000000000000000000000000000000000100000000000000008008000000000000000000000000000000000010000000000000000000000000000000000200000000008000000000010000540004000000000000000000000000000000000000000000000000000000000000080000000000000000000000000000000000000000000000000000000000000000000000002000000000000000000020000000000000000000000000000000000000000000000000000000000000000000000200000000000000000000000000000",
      "type": "0x2",
      "effectiveGasPrice": "0xbab3e6b1"
    }
  ],
  "libraries": [],
  "pending": [],
  "returns": {},
  "timestamp": 1711480507,
  "chain": 11155111,
  "commit": "f3784df"
}