{
  "transactions": [
    {
      "hash": "0xf964077dc9514ea575157b2d30b3c10896d575868572bd59ac01770a1182c338",
      "transactionType": "CALL",
      "contractName": null,
      "contractAddress": "0x16eCC704D4288BB0fb71f1eA11e7670b374F1a79",
      "function": "setDirectPrice(address,uint256)",
      "arguments": [
        "0x922684dc03C9DDEdcF4661b8d0B612B3a112eCd3",
        "1000000000000000000000"
      ],
      "transaction": {
        "type": "0x02",
        "from": "0x4a4f8be8217bc82588383ac91bad9b3ab34f345f",
        "to": "0x16ecc704d4288bb0fb71f1ea11e7670b374f1a79",
        "gas": "0x9c89",
        "value": "0x0",
        "data": "0x09a8acb0000000000000000000000000922684dc03c9ddedcf4661b8d0b612b3a112ecd300000000000000000000000000000000000000000000003635c9adc5dea00000",
        "nonce": "0x41",
        "accessList": []
      },
      "additionalContracts": [],
      "isFixedGasLimit": false
    }
  ],
  "receipts": [
    {
      "transactionHash": "0xf964077dc9514ea575157b2d30b3c10896d575868572bd59ac01770a1182c338",
      "transactionIndex": "0x1e",
      "blockHash": "0x86391dd8629085a7a8db91e63d7784e60402342599517d4c3b45d25e5e8855a3",
      "blockNumber": "0x54f108",
      "from": "0x4A4F8BE8217BC82588383AC91bad9B3aB34F345f",
      "to": "0x16eCC704D4288BB0fb71f1eA11e7670b374F1a79",
      "cumulativeGasUsed": "0x1119ec",
      "gasUsed": "0x7155",
      "contractAddress": null,
      "logs": [
        {
          "address": "0x16eCC704D4288BB0fb71f1eA11e7670b374F1a79",
          "topics": [
            "0xdd71a1d19fcba687442a1d5c58578f1e409af71a79d10fd95a4d66efd8fa9ae7"
          ],
          "data": "0x000000000000000000000000922684dc03c9ddedcf4661b8d0b612b3a112ecd3000000000000000000000000000000000000000000000a968163f0a57b40000000000000000000000000000000000000000000000000003635c9adc5dea0000000000000000000000000000000000000000000000000003635c9adc5dea00000",
          "blockHash": "0x86391dd8629085a7a8db91e63d7784e60402342599517d4c3b45d25e5e8855a3",
          "blockNumber": "0x54f108",
          "transactionHash": "0xf964077dc9514ea575157b2d30b3c10896d575868572bd59ac01770a1182c338",
          "transactionIndex": "0x1e",
          "logIndex": "0xb",
          "removed": false
        }
      ],
      "status": "0x1",
      "logsBloom": "0x00000000000000000000000000000000000000000000000000000000000000000000000000000000000000040000000000000000000000000000000000000000004000040000000000000020000000000000000000000000000000000000000000000000000000000000000000000000000000000000000000000000000000000000000000000000000000000000000000000000000000000000000000000000000000000000000000000000000000000000000000000000000000000000000000000000000000000000000000000000000000040000000000000000000000000000000000000000000000000000008000000000000000000000000000000000",
      "type": "0x2",
      "effectiveGasPrice": "0xb8b47cf4"
    }
  ],
  "libraries": [],
  "pending": [],
  "returns": {},
  "timestamp": 1711482581,
  "chain": 11155111,
  "commit": "f3784df"
}