{
  "transactions": [
    {
      "hash": "0x00ca825233fd14489b4b245f88a782ff57a594c84b6d5405cc5fcb6242fa660d",
      "transactionType": "CALL",
      "contractName": "WBTC",
      "contractAddress": "0x922684dc03C9DDEdcF4661b8d0B612B3a112eCd3",
      "function": "approve(address,uint256)",
      "arguments": [
        "0x4A4F8BE8217BC82588383AC91bad9B3aB34F345f",
        "115792089237316195423570985008687907853269984665640564039457584007913129639935"
      ],
      "transaction": {
        "type": "0x02",
        "from": "0x4a4f8be8217bc82588383ac91bad9b3ab34f345f",
        "to": "0x922684dc03c9ddedcf4661b8d0b612b3a112ecd3",
        "gas": "0x10975",
        "value": "0x0",
        "data": "0x095ea7b30000000000000000000000004a4f8be8217bc82588383ac91bad9b3ab34f345fffffffffffffffffffffffffffffffffffffffffffffffffffffffffffffffff",
        "nonce": "0x36",
        "accessList": []
      },
      "additionalContracts": [],
      "isFixedGasLimit": false
    },
    {
      "hash": "0xe0897bb5d5360f4802e9d427595dbdab0bcaf0cff6bca42a0f8b1d0816d5e9d8",
      "transactionType": "CALL",
      "contractName": "WBTC",
      "contractAddress": "0x922684dc03C9DDEdcF4661b8d0B612B3a112eCd3",
      "function": "transferFrom(address,address,uint256)",
      "arguments": [
        "0x4A4F8BE8217BC82588383AC91bad9B3aB34F345f",
        "0xD6cE77ffA909180bD2C26f248e88693bEfDB5A64",
        "1000000000000000000"
      ],
      "transaction": {
        "type": "0x02",
        "from": "0x4a4f8be8217bc82588383ac91bad9b3ab34f345f",
        "to": "0x922684dc03c9ddedcf4661b8d0b612b3a112ecd3",
        "gas": "0x123d9",
        "value": "0x0",
        "data": "0x23b872dd0000000000000000000000004a4f8be8217bc82588383ac91bad9b3ab34f345f000000000000000000000000d6ce77ffa909180bd2c26f248e88693befdb5a640000000000000000000000000000000000000000000000000de0b6b3a7640000",
        "nonce": "0x37",
        "accessList": []
      },
      "additionalContracts": [],
      "isFixedGasLimit": false
    }
  ],
  "receipts": [
    {
      "transactionHash": "0x00ca825233fd14489b4b245f88a782ff57a594c84b6d5405cc5fcb6242fa660d",
      "transactionIndex": "0x1d",
      "blockHash": "0xbbcec543886ad8990054fed8bf99a6f4759aa1b80c93edda7dfa2c36fdcaf22c",
      "blockNumber": "0x54f065",
      "from": "0x4A4F8BE8217BC82588383AC91bad9B3aB34F345f",
      "to": "0x922684dc03C9DDEdcF4661b8d0B612B3a112eCd3",
      "cumulativeGasUsed": "0x107b83",
      "gasUsed": "0xb583",
      "contractAddress": null,
      "logs": [
        {
          "address": "0x922684dc03C9DDEdcF4661b8d0B612B3a112eCd3",
          "topics": [
            "0x8c5be1e5ebec7d5bd14f71427d1e84f3dd0314c0f7b2291e5b200ac8c7c3b925",
            "0x0000000000000000000000004a4f8be8217bc82588383ac91bad9b3ab34f345f",
            "0x0000000000000000000000004a4f8be8217bc82588383ac91bad9b3ab34f345f"
          ],
          "data": "0xffffffffffffffffffffffffffffffffffffffffffffffffffffffffffffffff",
          "blockHash": "0xbbcec543886ad8990054fed8bf99a6f4759aa1b80c93edda7dfa2c36fdcaf22c",
          "blockNumber": "0x54f065",
          "transactionHash": "0x00ca825233fd14489b4b245f88a782ff57a594c84b6d5405cc5fcb6242fa660d",
          "transactionIndex": "0x1d",
          "logIndex": "0x10",
          "removed": false
        }
      ],
      "status": "0x1",
      "logsBloom": "0x00000000000000000000000000000000000000000000000000000000000000000000000000000000000000000000000000000000000000000000000000200000000000100000000000000000000000000000000000000000000000000000010000000000000000000000000000000000200000000000000000000000000500004000000000000000000000000000000000000000000000000000000000000000020000000000000000000000000000000000000000000000000000000000000000000000000000000000000000000000000000000000000000000000000000000010000000000000000000000000000000000000000000000000000000000000",
      "type": "0x2",
      "effectiveGasPrice": "0xbbd178f6"
    },
    {
      "transactionHash": "0xe0897bb5d5360f4802e9d427595dbdab0bcaf0cff6bca42a0f8b1d0816d5e9d8",
      "transactionIndex": "0x1e",
      "blockHash": "0xbbcec543886ad8990054fed8bf99a6f4759aa1b80c93edda7dfa2c36fdcaf22c",
      "blockNumber": "0x54f065",
      "from": "0x4A4F8BE8217BC82588383AC91bad9B3aB34F345f",
      "to": "0x922684dc03C9DDEdcF4661b8d0B612B3a112eCd3",
      "cumulativeGasUsed": "0x114ecf",
      "gasUsed": "0xd34c",
      "contractAddress": null,
      "logs": [
        {
          "address": "0x922684dc03C9DDEdcF4661b8d0B612B3a112eCd3",
          "topics": [
            "0xddf252ad1be2c89b69c2b068fc378daa952ba7f163c4a11628f55a4df523b3ef",
            "0x0000000000000000000000004a4f8be8217bc82588383ac91bad9b3ab34f345f",
            "0x000000000000000000000000d6ce77ffa909180bd2c26f248e88693befdb5a64"
          ],
          "data": "0x0000000000000000000000000000000000000000000000000de0b6b3a7640000",
          "blockHash": "0xbbcec543886ad8990054fed8bf99a6f4759aa1b80c93edda7dfa2c36fdcaf22c",
          "blockNumber": "0x54f065",
          "transactionHash": "0xe0897bb5d5360f4802e9d427595dbdab0bcaf0cff6bca42a0f8b1d0816d5e9d8",
          "transactionIndex": "0x1e",
          "logIndex": "0x11",
          "removed": false
        }
      ],
      "status": "0x1",
      "logsBloom": "0x00000000000000000000000000000000000000200000000020000000000000000000000000000000000000000000000000000000000000000000000000000000000000100000000000000008008000000000000000000000000000000000010000000000000000000000000000000000200000000000000000000010000500004000000000000000000000000000000000000000000000000000000000000000000000000000000000000000000000000000000000000000000000000000000000000002000000000000000000000000000000000000000000000000000000000000000000000000000000000000000000000000000000000000000000000000",
      "type": "0x2",
      "effectiveGasPrice": "0xbbd178f6"
    }
  ],
  "libraries": [],
  "pending": [],
  "returns": {},
  "timestamp": 1711480431,
  "chain": 11155111,
  "commit": "f3784df"
}