{
  "transactions": [
    {
      "hash": "0x24ac0a2c697ac16807fea3f860671ae0b6bb2905d9aafd79070591aa5c691f63",
      "transactionType": "CALL",
      "contractName": "WBTC",
      "contractAddress": "0x922684dc03C9DDEdcF4661b8d0B612B3a112eCd3",
      "function": "mint(address,uint256)",
      "arguments": [
        "0x5b73C5498c1E3b4dbA84de0F1833c4a029d90519",
        "10000000000000000000"
      ],
      "transaction": {
        "type": "0x02",
        "from": "0x4a4f8be8217bc82588383ac91bad9b3ab34f345f",
        "to": "0x922684dc03c9ddedcf4661b8d0b612b3a112ecd3",
        "gas": "0x113db",
        "value": "0x0",
        "data": "0x40c10f190000000000000000000000005b73c5498c1e3b4dba84de0f1833c4a029d905190000000000000000000000000000000000000000000000008ac7230489e80000",
        "nonce": "0x2c",
        "accessList": []
      },
      "additionalContracts": [],
      "isFixedGasLimit": false
    }
  ],
  "receipts": [
    {
      "transactionHash": "0x24ac0a2c697ac16807fea3f860671ae0b6bb2905d9aafd79070591aa5c691f63",
      "transactionIndex": "0x14",
      "blockHash": "0x22dde201d8a458579df2a7429903f6154e6621445884288471b34a0121eea74a",
      "blockNumber": "0x54efbf",
      "from": "0x4A4F8BE8217BC82588383AC91bad9B3aB34F345f",
      "to": "0x922684dc03C9DDEdcF4661b8d0B612B3a112eCd3",
      "cumulativeGasUsed": "0x796aa",
      "gasUsed": "0xc7b8",
      "contractAddress": null,
      "logs": [
        {
          "address": "0x922684dc03C9DDEdcF4661b8d0B612B3a112eCd3",
          "topics": [
            "0xddf252ad1be2c89b69c2b068fc378daa952ba7f163c4a11628f55a4df523b3ef",
            "0x0000000000000000000000000000000000000000000000000000000000000000",
            "0x0000000000000000000000005b73c5498c1e3b4dba84de0f1833c4a029d90519"
          ],
          "data": "0x0000000000000000000000000000000000000000000000008ac7230489e80000",
          "blockHash": "0x22dde201d8a458579df2a7429903f6154e6621445884288471b34a0121eea74a",
          "blockNumber": "0x54efbf",
          "transactionHash": "0x24ac0a2c697ac16807fea3f860671ae0b6bb2905d9aafd79070591aa5c691f63",
          "transactionIndex": "0x14",
          "logIndex": "0x2",
          "removed": false
        }
      ],
      "status": "0x1",
      "logsBloom": "0x00000000000000000000000000000000000000000000000000000000000000000000000000000000000000000000000000000000000000000000000000000000000000000000000000000008000000000000000000000000000000000000010000000000020000000000000000000800008000000000000000000010000400004000000000000000000000000000000000000000000000000000000000000000000000000000000000000002000000000000000000000000000000000000000000000002000000000000000000000000000000000000000000000000000020000000000000000000000000000000000000000000000000000000000000000200",
      "type": "0x2",
      "effectiveGasPrice": "0xc38f6c92"
    }
  ],
  "libraries": [],
  "pending": [],
  "returns": {},
  "timestamp": 1711478349,
  "chain": 11155111,
  "commit": "f3784df"
}