{
  "transactions": [
    {
      "hash": "0x9694a4eda0c73601a4b55a8bb22fa2b764ddb356c4923142b27bef9a57e0a399",
      "transactionType": "CALL",
      "contractName": "WBTC",
      "contractAddress": "0x922684dc03C9DDEdcF4661b8d0B612B3a112eCd3",
      "function": "mint(address,uint256)",
      "arguments": [
        "0x4A4F8BE8217BC82588383AC91bad9B3aB34F345f",
        "10000000000000000000"
      ],
      "transaction": {
        "type": "0x02",
        "from": "0x4a4f8be8217bc82588383ac91bad9b3ab34f345f",
        "to": "0x922684dc03c9ddedcf4661b8d0b612b3a112ecd3",
        "gas": "0x113db",
        "value": "0x0",
        "data": "0x40c10f190000000000000000000000004a4f8be8217bc82588383ac91bad9b3ab34f345f0000000000000000000000000000000000000000000000008ac7230489e80000",
        "nonce": "0x35",
        "accessList": []
      },
      "additionalContracts": [],
      "isFixedGasLimit": false
    }
  ],
  "receipts": [
    {
      "transactionHash": "0x9694a4eda0c73601a4b55a8bb22fa2b764ddb356c4923142b27bef9a57e0a399",
      "transactionIndex": "0x1c",
      "blockHash": "0xdb172ed1785b5cdabbd433e5cc9cff8aff3c07f11bb033cc81a87187054f0014",
      "blockNumber": "0x54f050",
      "from": "0x4A4F8BE8217BC82588383AC91bad9B3aB34F345f",
      "to": "0x922684dc03C9DDEdcF4661b8d0B612B3a112eCd3",
      "cumulativeGasUsed": "0xb5a14",
      "gasUsed": "0xc7b8",
      "contractAddress": null,
      "logs": [
        {
          "address": "0x922684dc03C9DDEdcF4661b8d0B612B3a112eCd3",
          "topics": [
            "0xddf252ad1be2c89b69c2b068fc378daa952ba7f163c4a11628f55a4df523b3ef",
            "0x0000000000000000000000000000000000000000000000000000000000000000",
            "0x0000000000000000000000004a4f8be8217bc82588383ac91bad9b3ab34f345f"
          ],
          "data": "0x0000000000000000000000000000000000000000000000008ac7230489e80000",
          "blockHash": "0xdb172ed1785b5cdabbd433e5cc9cff8aff3c07f11bb033cc81a87187054f0014",
          "blockNumber": "0x54f050",
          "transactionHash": "0x9694a4eda0c73601a4b55a8bb22fa2b764ddb356c4923142b27bef9a57e0a399",
          "transactionIndex": "0x1c",
          "logIndex": "0x3",
          "removed": false
        }
      ],
      "status": "0x1",
      "logsBloom": "0x00000000000000000000000000000000000000000000000000000000000000000000000000000000000000000000000000000000000000000000000000000000000000100000000000000008000000000000000000000000000000000000010000000000020000000000000000000800200000000000000000000010000500004000000000000000000000000000000000000000000000000000000000000000000000000000000000000000000000000000000000000000000000000000000000000002000000000000000000000000000000000000000000000000000020000000000000000000000000000000000000000000000000000000000000000000",
      "type": "0x2",
      "effectiveGasPrice": "0xbb413e24"
    }
  ],
  "libraries": [],
  "pending": [],
  "returns": {},
  "timestamp": 1711480156,
  "chain": 11155111,
  "commit": "f3784df"
}