{
  "transactions": [
    {
      "hash": "0x313589cb9c289cc99ca2858d32115fa45c896341f13614e141122bdcba509b92",
      "transactionType": "CALL",
      "contractName": null,
      "contractAddress": "0xeD1be65B71ec045D14232C6ed80BDA227DB6F4f7",
      "function": "enterMarkets(address[])",
      "arguments": [
        "[0xD6cE77ffA909180bD2C26f248e88693bEfDB5A64]"
      ],
      "transaction": {
        "type": "0x02",
        "from": "0x4a4f8be8217bc82588383ac91bad9b3ab34f345f",
        "to": "0xed1be65b71ec045d14232c6ed80bda227db6f4f7",
        "gas": "0x21776",
        "value": "0x0",
        "data": "0xc299823800000000000000000000000000000000000000000000000000000000000000200000000000000000000000000000000000000000000000000000000000000001000000000000000000000000d6ce77ffa909180bd2c26f248e88693befdb5a64",
        "nonce": "0x3a",
        "accessList": []
      },
      "additionalContracts": [],
      "isFixedGasLimit": false
    },
    {
      "hash": "0x70b51b42677bc12ab6428f1f9c24f39fedaf32c2f5b6c1f35a0c21e35e6b348e",
      "transactionType": "CALL",
      "contractName": null,
      "contractAddress": "0xfB8FAf9784b93290FdDF8593b594E16BB7790Afd",
      "function": "borrow(uint256)",
      "arguments": [
        "1000000000000000000"
      ],
      "transaction": {
        "type": "0x02",
        "from": "0x4a4f8be8217bc82588383ac91bad9b3ab34f345f",
        "to": "0xfb8faf9784b93290fddf8593b594e16bb7790afd",
        "gas": "0x5e11e",
        "value": "0x0",
        "data": "0xc5ebeaec0000000000000000000000000000000000000000000000000de0b6b3a7640000",
        "nonce": "0x3b",
        "accessList": []
      },
      "additionalContracts": [],
      "isFixedGasLimit": false
    }
  ],
  "receipts": [
    {
      "transactionHash": "0x313589cb9c289cc99ca2858d32115fa45c896341f13614e141122bdcba509b92",
      "transactionIndex": "0x30",
      "blockHash": "0x66d4c3875f5225abac0a1bdb48ae7ca50e0fd8ea89f622a80a44f02ce601be38",
      "blockNumber": "0x54f0a5",
      "from": "0x4A4F8BE8217BC82588383AC91bad9B3aB34F345f",
      "to": "0xeD1be65B71ec045D14232C6ed80BDA227DB6F4f7",
      "cumulativeGasUsed": "0x16b2bf",
      "gasUsed": "0x16e21",
      "contractAddress": null,
      "logs": [
        {
          "address": "0xeD1be65B71ec045D14232C6ed80BDA227DB6F4f7",
          "topics": [
            "0x3ab23ab0d51cccc0c3085aec51f99228625aa1a922b3a8ca89a26b0f2027a1a5"
          ],
          "data": "0x000000000000000000000000d6ce77ffa909180bd2c26f248e88693befdb5a640000000000000000000000004a4f8be8217bc82588383ac91bad9b3ab34f345f",
          "blockHash": "0x66d4c3875f5225abac0a1bdb48ae7ca50e0fd8ea89f622a80a44f02ce601be38",
          "blockNumber": "0x54f0a5",
          "transactionHash": "0x313589cb9c289cc99ca2858d32115fa45c896341f13614e141122bdcba509b92",
          "transactionIndex": "0x30",
          "logIndex": "0xd",
          "removed": false
        }
      ],
      "status": "0x1",
      "logsBloom": "0x00000000000000000000000000000000000000000000000000000000000000000000000000000000000000000000000000000000010000010000000000000000000000000000000000000000000000000000000000000000000000000000000000000000000000000000000210000000000000000010000000000000000000000000000000000000000000000000000000000000000000000000000000000000000000000000000000000000000000000000000000000000000000000000000004000000000000000000000000000000000000000000000000000000000000000000000000000000000000000000000000000000000000000000000000000000",
      "type": "0x2",
      "effectiveGasPrice": "0xb925e623"
    },
    {
      "transactionHash": "0x70b51b42677bc12ab6428f1f9c24f39fedaf32c2f5b6c1f35a0c21e35e6b348e",
      "transactionIndex": "0x31",
      "blockHash": "0x66d4c3875f5225abac0a1bdb48ae7ca50e0fd8ea89f622a80a44f02ce601be38",
      "blockNumber": "0x54f0a5",
      "from": "0x4A4F8BE8217BC82588383AC91bad9B3aB34F345f",
      "to": "0xfB8FAf9784b93290FdDF8593b594E16BB7790Afd",
      "cumulativeGasUsed": "0x1af46e",
      "gasUsed": "0x441af",
      "contractAddress": null,
      "logs": [
        {
          "address": "0xfB8FAf9784b93290FdDF8593b594E16BB7790Afd",
          "topics": [
            "0x4dec04e750ca11537cabcd8a9eab06494de08da3735bc8871cd41250e190bc04"
          ],
          "data": "0x00000000000000000000000000000000000000000000801d1d9fac9f2020000000000000000000000000000000000000000000000000000000000000000000000000000000000000000000000000000000000000000000000de3f0aab5f1c2e70000000000000000000000000000000000000000000000000000000000000000",
          "blockHash": "0x66d4c3875f5225abac0a1bdb48ae7ca50e0fd8ea89f622a80a44f02ce601be38",
          "blockNumber": "0x54f0a5",
          "transactionHash": "0x70b51b42677bc12ab6428f1f9c24f39fedaf32c2f5b6c1f35a0c21e35e6b348e",
          "transactionIndex": "0x31",
          "logIndex": "0xe",
          "removed": false
        },
        {
          "address": "0xeD1be65B71ec045D14232C6ed80BDA227DB6F4f7",
          "topics": [
            "0x3ab23ab0d51cccc0c3085aec51f99228625aa1a922b3a8ca89a26b0f2027a1a5"
          ],
          "data": "0x000000000000000000000000fb8faf9784b93290fddf8593b594e16bb7790afd0000000000000000000000004a4f8be8217bc82588383ac91bad9b3ab34f345f",
          "blockHash": "0x66d4c3875f5225abac0a1bdb48ae7ca50e0fd8ea89f622a80a44f02ce601be38",
          "blockNumber": "0x54f0a5",
          "transactionHash": "0x70b51b42677bc12ab6428f1f9c24f39fedaf32c2f5b6c1f35a0c21e35e6b348e",
          "transactionIndex": "0x31",
          "logIndex": "0xf",
          "removed": false
        },
        {
          "address": "0x4A0B2AC95cF18d7C7b3a2D1b15850ac53b28f5F8",
          "topics": [
            "0xddf252ad1be2c89b69c2b068fc378daa952ba7f163c4a11628f55a4df523b3ef",
            "0x000000000000000000000000fb8faf9784b93290fddf8593b594e16bb7790afd",
            "0x0000000000000000000000004a4f8be8217bc82588383ac91bad9b3ab34f345f"
          ],
          "data": "0x0000000000000000000000000000000000000000000000000de0b6b3a7640000",
          "blockHash": "0x66d4c3875f5225abac0a1bdb48ae7ca50e0fd8ea89f622a80a44f02ce601be38",
          "blockNumber": "0x54f0a5",
          "transactionHash": "0x70b51b42677bc12ab6428f1f9c24f39fedaf32c2f5b6c1f35a0c21e35e6b348e",
          "transactionIndex": "0x31",
          "logIndex": "0x10",
          "removed": false
        },
        {
          "address": "0xfB8FAf9784b93290FdDF8593b594E16BB7790Afd",
          "topics": [
            "0x13ed6866d4e1ee6da46f845c46d7e54120883d75c5ea9a2dacc1c4ca8984ab80"
          ],
          "data": "0x0000000000000000000000004a4f8be8217bc82588383ac91bad9b3ab34f345f0000000000000000000000000000000000000000000000000de0b6b3a76400000000000000000000000000000000000000000000000000000de0b6b3a76400000000000000000000000000000000000000000000000000000de0b6b3a7640000",
          "blockHash": "0x66d4c3875f5225abac0a1bdb48ae7ca50e0fd8ea89f622a80a44f02ce601be38",
          "blockNumber": "0x54f0a5",
          "transactionHash": "0x70b51b42677bc12ab6428f1f9c24f39fedaf32c2f5b6c1f35a0c21e35e6b348e",
          "transactionIndex": "0x31",
          "logIndex": "0x11",
          "removed": false
        }
      ],
      "status": "0x1",
      "logsBloom": "0x00000000200000000000000000000000000000000000400000000000000000000000000000008000000000000000000000000000010000010000000000400000000000100000000000000008000000000000000000000000000000000000000040004000000000000000000210000000200000000010000000000010000100000000001000000000000000000000000000000002000000000000000000000080000000000000000000000000000000000000000000000000000000000000000004000002000040000100000000000000000000000000000000020000000000000400000000400000000000000000000000200000000000000000000000000000",
      "type": "0x2",
      "effectiveGasPrice": "0xb925e623"
    }
  ],
  "libraries": [],
  "pending": [],
  "returns": {},
  "timestamp": 1711481261,
  "chain": 11155111,
  "commit": "f3784df"
}