{
  "transactions": [
    {
      "hash": "0x7340e2f0347796a7f0ea830caae7708f50d9b5c125ae110415b2e8355844d5c4",
      "transactionType": "CALL",
      "contractName": null,
      "contractAddress": "0xfB8FAf9784b93290FdDF8593b594E16BB7790Afd",
      "function": "borrow(uint256)",
      "arguments": [
        "3000000000000000000000"
      ],
      "transaction": {
        "type": "0x02",
        "from": "0x4a4f8be8217bc82588383ac91bad9b3ab34f345f",
        "to": "0xfb8faf9784b93290fddf8593b594e16bb7790afd",
        "gas": "0x3dbe4",
        "value": "0x0",
        "data": "0xc5ebeaec0000000000000000000000000000000000000000000000a2a15d09519be00000",
        "nonce": "0x40",
        "accessList": []
      },
      "additionalContracts": [],
      "isFixedGasLimit": false
    }
  ],
  "receipts": [
    {
      "transactionHash": "0x7340e2f0347796a7f0ea830caae7708f50d9b5c125ae110415b2e8355844d5c4",
      "transactionIndex": "0x26",
      "blockHash": "0x5f0572f8cdadecc7e7bb4afbcb30abbea3781569802f8277e155b40b1eaa6c0c",
      "blockNumber": "0x54f101",
      "from": "0x4A4F8BE8217BC82588383AC91bad9B3aB34F345f",
      "to": "0xfB8FAf9784b93290FdDF8593b594E16BB7790Afd",
      "cumulativeGasUsed": "0x271602",
      "gasUsed": "0x2cb38",
      "contractAddress": null,
      "logs": [
        {
          "address": "0xfB8FAf9784b93290FdDF8593b594E16BB7790Afd",
          "topics": [
            "0x4dec04e750ca11537cabcd8a9eab06494de08da3735bc8871cd41250e190bc04"
          ],
          "data": "0x0000000000000000000000000000000000000000005337ea80bfa490f9ac0000000000000000000000000000000000000000000000000000000017a6cc8e4e320000000000000000000000000000000000000000000000000de3f35cbea9161500000000000000000000000000000000000000000000000579a82efd4c9654fe",
          "blockHash": "0x5f0572f8cdadecc7e7bb4afbcb30abbea3781569802f8277e155b40b1eaa6c0c",
          "blockNumber": "0x54f101",
          "transactionHash": "0x7340e2f0347796a7f0ea830caae7708f50d9b5c125ae110415b2e8355844d5c4",
          "transactionIndex": "0x26",
          "logIndex": "0x3",
          "removed": false
        },
        {
          "address": "0x4A0B2AC95cF18d7C7b3a2D1b15850ac53b28f5F8",
          "topics": [
            "0xddf252ad1be2c89b69c2b068fc378daa952ba7f163c4a11628f55a4df523b3ef",
            "0x000000000000000000000000fb8faf9784b93290fddf8593b594e16bb7790afd",
            "0x0000000000000000000000004a4f8be8217bc82588383ac91bad9b3ab34f345f"
          ],
          "data": "0x0000000000000000000000000000000000000000000000a2a15d09519be00000",
          "blockHash": "0x5f0572f8cdadecc7e7bb4afbcb30abbea3781569802f8277e155b40b1eaa6c0c",
          "blockNumber": "0x54f101",
          "transactionHash": "0x7340e2f0347796a7f0ea830caae7708f50d9b5c125ae110415b2e8355844d5c4",
          "transactionIndex": "0x26",
          "logIndex": "0x4",
          "removed": false
        },
        {
          "address": "0xfB8FAf9784b93290FdDF8593b594E16BB7790Afd",
          "topics": [
            "0x13ed6866d4e1ee6da46f845c46d7e54120883d75c5ea9a2dacc1c4ca8984ab80"
          ],
          "data": "0x0000000000000000000000004a4f8be8217bc82588383ac91bad9b3ab34f345f0000000000000000000000000000000000000000000000a2a15d09519be000000000000000000000000000000000000000000000000000a81b05384ee87654a80000000000000000000000000000000000000000000000a81b05384ee87654fe",
          "blockHash": "0x5f0572f8cdadecc7e7bb4afbcb30abbea3781569802f8277e155b40b1eaa6c0c",
          "blockNumber": "0x54f101",
          "transactionHash": "0x7340e2f0347796a7f0ea830caae7708f50d9b5c125ae110415b2e8355844d5c4",
          "transactionIndex": "0x26",
          "logIndex": "0x5",
          "removed": false
        }
      ],
      "status": "0x1",
      "logsBloom": "0x00000000200000000000000000000000000000000000400000000000000000000000000000008000000000000000000000000000000000000000000000400000000000100000000000000008000000000000000000000000000000000000000040004000000000000000000000000000200000000000000000000010000100000000001000000000000000000000000000000002000000000000000000000080000000000000000000000000000000000000000000000000000000000000000000000002000040000100000000000000000000000000000000020000000000000400000000400000000000000000000000200000000000000000000000000000",
      "type": "0x2",
      "effectiveGasPrice": "0xb995e235"
    }
  ],
  "libraries": [],
  "pending": [],
  "returns": {},
  "timestamp": 1711482448,
  "chain": 11155111,
  "commit": "f3784df"
}