{
  "transactions": [
    {
      "hash": "0xbbd91a9826e730f807aa22c458af8b5fa70af9b61df6297d801481f702826958",
      "transactionType": "CALL",
      "contractName": null,
      "contractAddress": "0x186464C6ef8Cf9C2E437B6abA9647AF48392E93D",
      "function": "liquidate(address,address,address,uint256,address)",
      "arguments": [
        "0x4A0B2AC95cF18d7C7b3a2D1b15850ac53b28f5F8",
        "0xfB8FAf9784b93290FdDF8593b594E16BB7790Afd",
        "0x4A4F8BE8217BC82588383AC91bad9B3aB34F345f",
        "300000000000000000000",
        "0xD6cE77ffA909180bD2C26f248e88693bEfDB5A64"
      ],
      "transaction": {
        "type": "0x02",
        "from": "0x4a4f8be8217bc82588383ac91bad9b3ab34f345f",
        "to": "0x186464c6ef8cf9c2e437b6aba9647af48392e93d",
        "gas": "0x69991",
        "value": "0x0",
        "data": "0x4b2bc5df0000000000000000000000004a0b2ac95cf18d7c7b3a2d1b15850ac53b28f5f8000000000000000000000000fb8faf9784b93290fddf8593b594e16bb7790afd0000000000000000000000004a4f8be8217bc82588383ac91bad9b3ab34f345f00000000000000000000000000000000000000000000001043561a8829300000000000000000000000000000d6ce77ffa909180bd2c26f248e88693befdb5a64",
        "nonce": "0x44",
        "accessList": []
      },
      "additionalContracts": [],
      "isFixedGasLimit": false
    }
  ],
  "receipts": [
    {
      "transactionHash": "0xbbd91a9826e730f807aa22c458af8b5fa70af9b61df6297d801481f702826958",
      "transactionIndex": "0x1b",
      "blockHash": "0x7ac3bc034bd6ebe0627794b7fe7445a9d015e4647d651c6413981bcd9f0fba0f",
      "blockNumber": "0x54f18f",
      "from": "0x4A4F8BE8217BC82588383AC91bad9B3aB34F345f",
      "to": "0x186464C6ef8Cf9C2E437B6abA9647AF48392E93D",
      "cumulativeGasUsed": "0xf8fa4",
      "gasUsed": "0x4c738",
      "contractAddress": null,
      "logs": [
        {
          "address": "0x4A0B2AC95cF18d7C7b3a2D1b15850ac53b28f5F8",
          "topics": [
            "0xddf252ad1be2c89b69c2b068fc378daa952ba7f163c4a11628f55a4df523b3ef",
            "0x0000000000000000000000000000000000000000000000000000000000000000",
            "0x000000000000000000000000186464c6ef8cf9c2e437b6aba9647af48392e93d"
          ],
          "data": "0x00000000000000000000000000000000000000000052b7d2dcc80cd2e4000000",
          "blockHash": "0x7ac3bc034bd6ebe0627794b7fe7445a9d015e4647d651c6413981bcd9f0fba0f",
          "blockNumber": "0x54f18f",
          "transactionHash": "0xbbd91a9826e730f807aa22c458af8b5fa70af9b61df6297d801481f702826958",
          "transactionIndex": "0x1b",
          "logIndex": "0x4",
          "removed": false
        },
        {
          "address": "0x4A0B2AC95cF18d7C7b3a2D1b15850ac53b28f5F8",
          "topics": [
            "0x8c5be1e5ebec7d5bd14f71427d1e84f3dd0314c0f7b2291e5b200ac8c7c3b925",
            "0x000000000000000000000000186464c6ef8cf9c2e437b6aba9647af48392e93d",
            "0x000000000000000000000000fb8faf9784b93290fddf8593b594e16bb7790afd"
          ],
          "data": "0xffffffffffffffffffffffffffffffffffffffffffffffffffffffffffffffff",
          "blockHash": "0x7ac3bc034bd6ebe0627794b7fe7445a9d015e4647d651c6413981bcd9f0fba0f",
          "blockNumber": "0x54f18f",
          "transactionHash": "0xbbd91a9826e730f807aa22c458af8b5fa70af9b61df6297d801481f702826958",
          "transactionIndex": "0x1b",
          "logIndex": "0x5",
          "removed": false
        },
        {
          "address": "0xfB8FAf9784b93290FdDF8593b594E16BB7790Afd",
          "topics": [
            "0x4dec04e750ca11537cabcd8a9eab06494de08da3735bc8871cd41250e190bc04"
          ],
          "data": "0x000000000000000000000000000000000000000000533747df629b3f5dcc2710000000000000000000000000000000000000000000000000001435ff58c04f910000000000000000000000000000000000000000000000000de3f785cd2800940000000000000000000000000000000000000000000000a81b3791e511e932de",
          "blockHash": "0x7ac3bc034bd6ebe0627794b7fe7445a9d015e4647d651c6413981bcd9f0fba0f",
          "blockNumber": "0x54f18f",
          "transactionHash": "0xbbd91a9826e730f807aa22c458af8b5fa70af9b61df6297d801481f702826958",
          "transactionIndex": "0x1b",
          "logIndex": "0x6",
          "removed": false
        },
        {
          "address": "0xD6cE77ffA909180bD2C26f248e88693bEfDB5A64",
          "topics": [
            "0x4dec04e750ca11537cabcd8a9eab06494de08da3735bc8871cd41250e190bc04"
          ],
          "data": "0x0000000000000000000000000000000000000000000000001bc16d674ec8000000000000000000000000000000000000000000000000000000000000000000000000000000000000000000000000000000000000000000000de0c5d5d8522e920000000000000000000000000000000000000000000000000000000000000000",
          "blockHash": "0x7ac3bc034bd6ebe0627794b7fe7445a9d015e4647d651c6413981bcd9f0fba0f",
          "blockNumber": "0x54f18f",
          "transactionHash": "0xbbd91a9826e730f807aa22c458af8b5fa70af9b61df6297d801481f702826958",
          "transactionIndex": "0x1b",
          "logIndex": "0x7",
          "removed": false
        },
        {
          "address": "0x4A0B2AC95cF18d7C7b3a2D1b15850ac53b28f5F8",
          "topics": [
            "0xddf252ad1be2c89b69c2b068fc378daa952ba7f163c4a11628f55a4df523b3ef",
            "0x000000000000000000000000186464c6ef8cf9c2e437b6aba9647af48392e93d",
            "0x000000000000000000000000fb8faf9784b93290fddf8593b594e16bb7790afd"
          ],
          "data": "0x00000000000000000000000000000000000000000000001043561a8829300000",
          "blockHash": "0x7ac3bc034bd6ebe0627794b7fe7445a9d015e4647d651c6413981bcd9f0fba0f",
          "blockNumber": "0x54f18f",
          "transactionHash": "0xbbd91a9826e730f807aa22c458af8b5fa70af9b61df6297d801481f702826958",
          "transactionIndex": "0x1b",
          "logIndex": "0x8",
          "removed": false
        },
        {
          "address": "0xfB8FAf9784b93290FdDF8593b594E16BB7790Afd",
          "topics": [
            "0x1a2a22cb034d26d1854bdc6666a5b91fe25efbbb5dcad3b0355478d6f5c362a1"
          ],
          "data": "0x000000000000000000000000186464c6ef8cf9c2e437b6aba9647af48392e93d0000000000000000000000004a4f8be8217bc82588383ac91bad9b3ab34f345f00000000000000000000000000000000000000000000001043561a8829300000000000000000000000000000000000000000000000000097d7e1775ce8b91ae5000000000000000000000000000000000000000000000097d7e1775ce8b932de",
          "blockHash": "0x7ac3bc034bd6ebe0627794b7fe7445a9d015e4647d651c6413981bcd9f0fba0f",
          "blockNumber": "0x54f18f",
          "transactionHash": "0xbbd91a9826e730f807aa22c458af8b5fa70af9b61df6297d801481f702826958",
          "transactionIndex": "0x1b",
          "logIndex": "0x9",
          "removed": false
        },
        {
          "address": "0xD6cE77ffA909180bD2C26f248e88693bEfDB5A64",
          "topics": [
            "0xddf252ad1be2c89b69c2b068fc378daa952ba7f163c4a11628f55a4df523b3ef",
            "0x0000000000000000000000004a4f8be8217bc82588383ac91bad9b3ab34f345f",
            "0x000000000000000000000000186464c6ef8cf9c2e437b6aba9647af48392e93d"
          ],
          "data": "0x000000000000000000000000000000000000000000000000000000002eed8cc0",
          "blockHash": "0x7ac3bc034bd6ebe0627794b7fe7445a9d015e4647d651c6413981bcd9f0fba0f",
          "blockNumber": "0x54f18f",
          "transactionHash": "0xbbd91a9826e730f807aa22c458af8b5fa70af9b61df6297d801481f702826958",
          "transactionIndex": "0x1b",
          "logIndex": "0xa",
          "removed": false
        },
        {
          "address": "0xD6cE77ffA909180bD2C26f248e88693bEfDB5A64",
          "topics": [
            "0xddf252ad1be2c89b69c2b068fc378daa952ba7f163c4a11628f55a4df523b3ef",
            "0x0000000000000000000000004a4f8be8217bc82588383ac91bad9b3ab34f345f",
            "0x000000000000000000000000d6ce77ffa909180bd2c26f248e88693befdb5a64"
          ],
          "data": "0x00000000000000000000000000000000000000000000000000000000015a11c0",
          "blockHash": "0x7ac3bc034bd6ebe0627794b7fe7445a9d015e4647d651c6413981bcd9f0fba0f",
          "blockNumber": "0x54f18f",
          "transactionHash": "0xbbd91a9826e730f807aa22c458af8b5fa70af9b61df6297d801481f702826958",
          "transactionIndex": "0x1b",
          "logIndex": "0xb",
          "removed": false
        },
        {
          "address": "0xD6cE77ffA909180bD2C26f248e88693bEfDB5A64",
          "topics": [
            "0xa91e67c5ea634cd43a12c5a482724b03de01e85ca68702a53d0c2f45cb7c1dc5"
          ],
          "data": "0x000000000000000000000000d6ce77ffa909180bd2c26f248e88693befdb5a6400000000000000000000000000000000000000000000000000203aef9967000000000000000000000000000000000000000000000000000000203aef99670000",
          "blockHash": "0x7ac3bc034bd6ebe0627794b7fe7445a9d015e4647d651c6413981bcd9f0fba0f",
          "blockNumber": "0x54f18f",
          "transactionHash": "0xbbd91a9826e730f807aa22c458af8b5fa70af9b61df6297d801481f702826958",
          "transactionIndex": "0x1b",
          "logIndex": "0xc",
          "removed": false
        },
        {
          "address": "0xfB8FAf9784b93290FdDF8593b594E16BB7790Afd",
          "topics": [
            "0x298637f684da70674f26509b10f07ec2fbc77a335ab1e7d6215a4b2484d8bb52"
          ],
          "data": "0x000000000000000000000000186464c6ef8cf9c2e437b6aba9647af48392e93d0000000000000000000000004a4f8be8217bc82588383ac91bad9b3ab34f345f00000000000000000000000000000000000000000000001043561a8829300000000000000000000000000000d6ce77ffa909180bd2c26f248e88693befdb5a640000000000000000000000000000000000000000000000000000000030479e80",
          "blockHash": "0x7ac3bc034bd6ebe0627794b7fe7445a9d015e4647d651c6413981bcd9f0fba0f",
          "blockNumber": "0x54f18f",
          "transactionHash": "0xbbd91a9826e730f807aa22c458af8b5fa70af9b61df6297d801481f702826958",
          "transactionIndex": "0x1b",
          "logIndex": "0xd",
          "removed": false
        }
      ],
      "status": "0x1",
      "logsBloom": "0x00000020000000000000004000000000000000200000400020004000000000000000000000000200000000000000000000000000000000020000000000600000000000100000000000000008008000000000000000000000000000000000000040104000020000000000000000080800200000000000000000200010080140000000000000000000000000000000000000000002000000000000000000000080020000000000000000000000000000000000000000000000000000000000000000000002000040008100000000000000000000000000000000020000000020000410000000400000000000000000000100300000040000000000000400000000",
      "type": "0x2",
      "effectiveGasPrice": "0xb987160f"
    }
  ],
  "libraries": [],
  "pending": [],
  "returns": {},
  "timestamp": 1711484298,
  "chain": 11155111,
  "commit": "f3784df"
}